{
	"contracts/1_Storage.sol": {
		"Storage": {
			"abi": [
				{
					"anonymous": false,
					"inputs": [
						{
							"indexed": true,
							"internalType": "address",
							"name": "_address",
							"type": "address"
						}
					],
					"name": "logRemove",
					"type": "event"
				},
				{
					"anonymous": false,
					"inputs": [
						{
							"indexed": true,
							"internalType": "address",
							"name": "_address",
							"type": "address"
						},
						{
							"indexed": false,
							"internalType": "string",
							"name": "message",
							"type": "string"
						}
					],
					"name": "logSet",
					"type": "event"
				},
				{
					"inputs": [
						{
							"internalType": "address",
							"name": "",
							"type": "address"
						}
					],
					"name": "infoMap",
					"outputs": [
						{
							"internalType": "int256",
							"name": "ammount",
							"type": "int256"
						},
						{
							"internalType": "string",
							"name": "message",
							"type": "string"
						},
						{
							"internalType": "bool",
							"name": "flag",
							"type": "bool"
						}
					],
					"stateMutability": "view",
					"type": "function"
				},
				{
					"inputs": [
						{
							"internalType": "address",
							"name": "_addr",
							"type": "address"
						}
					],
					"name": "remove",
					"outputs": [],
					"stateMutability": "nonpayable",
					"type": "function"
				},
				{
					"inputs": [],
					"name": "retrieve",
					"outputs": [
						{
							"internalType": "uint256",
							"name": "",
							"type": "uint256"
						}
					],
					"stateMutability": "view",
					"type": "function"
				},
				{
					"inputs": [
						{
							"internalType": "address",
							"name": "_addr",
							"type": "address"
						},
						{
							"internalType": "int256",
							"name": "_ammount",
							"type": "int256"
						},
						{
							"internalType": "string",
							"name": "_message",
							"type": "string"
						},
						{
							"internalType": "bool",
							"name": "_flag",
							"type": "bool"
						}
					],
					"name": "set",
					"outputs": [],
					"stateMutability": "nonpayable",
					"type": "function"
				},
				{
					"inputs": [
						{
							"internalType": "uint256",
							"name": "num",
							"type": "uint256"
						}
					],
					"name": "store",
					"outputs": [],
					"stateMutability": "nonpayable",
					"type": "function"
				}
			],
			"devdoc": {
				"custom:dev-run-script": "./scripts/deploy_with_ethers.ts",
				"details": "Store & retrieve value in a variable",
				"kind": "dev",
				"methods": {
					"retrieve()": {
						"details": "Return value ",
						"returns": {
							"_0": "value of 'number'"
						}
					},
					"store(uint256)": {
						"details": "Store value in variable",
						"params": {
							"num": "value to store"
						}
					}
				},
				"title": "Storage",
				"version": 1
			},
			"evm": {
				"assembly": "    /* \"contracts/1_Storage.sol\":199:1114  contract Storage {... */\n  mstore(0x40, 0x80)\n  callvalue\n  dup1\n  iszero\n  tag_1\n  jumpi\n  0x00\n  dup1\n  revert\ntag_1:\n  pop\n  dataSize(sub_0)\n  dup1\n  dataOffset(sub_0)\n  0x00\n  codecopy\n  0x00\n  return\nstop\n\nsub_0: assembly {\n        /* \"contracts/1_Storage.sol\":199:1114  contract Storage {... */\n      mstore(0x40, 0x80)\n      callvalue\n      dup1\n      iszero\n      tag_1\n      jumpi\n      0x00\n      dup1\n      revert\n    tag_1:\n      pop\n      jumpi(tag_2, lt(calldatasize, 0x04))\n      shr(0xe0, calldataload(0x00))\n      dup1\n      0x29092d0e\n      eq\n      tag_3\n      jumpi\n      dup1\n      0x2e64cec1\n      eq\n      tag_4\n      jumpi\n      dup1\n      0x6057361d\n      eq\n      tag_5\n      jumpi\n      dup1\n      0xd7d0fe2d\n      eq\n      tag_6\n      jumpi\n      dup1\n      0xec1653ad\n      eq\n      tag_7\n      jumpi\n    tag_2:\n      0x00\n      dup1\n      revert\n        /* \"contracts/1_Storage.sol\":663:775  function remove(address _addr) public {... */\n    tag_3:\n      tag_8\n      0x04\n      dup1\n      calldatasize\n      sub\n      dup2\n      add\n      swap1\n      tag_9\n      swap2\n      swap1\n      tag_10\n      jump\t// in\n    tag_9:\n      tag_11\n      jump\t// in\n    tag_8:\n      stop\n        /* \"contracts/1_Storage.sol\":1033:1112  function retrieve() public view returns (uint256){... */\n    tag_4:\n      tag_12\n      tag_13\n      jump\t// in\n    tag_12:\n      mload(0x40)\n      tag_14\n      swap2\n      swap1\n      tag_15\n      jump\t// in\n    tag_14:\n      mload(0x40)\n      dup1\n      swap2\n      sub\n      swap1\n      return\n        /* \"contracts/1_Storage.sol\":888:952  function store(uint256 num) public {... */\n    tag_5:\n      tag_16\n      0x04\n      dup1\n      calldatasize\n      sub\n      dup2\n      add\n      swap1\n      tag_17\n      swap2\n      swap1\n      tag_18\n      jump\t// in\n    tag_17:\n      tag_19\n      jump\t// in\n    tag_16:\n      stop\n        /* \"contracts/1_Storage.sol\":464:657  function set(address _addr, int _ammount, string memory _message, bool _flag) public {... */\n    tag_6:\n      tag_20\n      0x04\n      dup1\n      calldatasize\n      sub\n      dup2\n      add\n      swap1\n      tag_21\n      swap2\n      swap1\n      tag_22\n      jump\t// in\n    tag_21:\n      tag_23\n      jump\t// in\n    tag_20:\n      stop\n        /* \"contracts/1_Storage.sol\":311:350  mapping(address => Info) public infoMap */\n    tag_7:\n      tag_24\n      0x04\n      dup1\n      calldatasize\n      sub\n      dup2\n      add\n      swap1\n      tag_25\n      swap2\n      swap1\n      tag_10\n      jump\t// in\n    tag_25:\n      tag_26\n      jump\t// in\n    tag_24:\n      mload(0x40)\n      tag_27\n      swap4\n      swap3\n      swap2\n      swap1\n      tag_28\n      jump\t// in\n    tag_27:\n      mload(0x40)\n      dup1\n      swap2\n      sub\n      swap1\n      return\n        /* \"contracts/1_Storage.sol\":663:775  function remove(address _addr) public {... */\n    tag_11:\n        /* \"contracts/1_Storage.sol\":718:725  infoMap */\n      0x00\n        /* \"contracts/1_Storage.sol\":718:732  infoMap[_addr] */\n      dup1\n        /* \"contracts/1_Storage.sol\":726:731  _addr */\n      dup3\n        /* \"contracts/1_Storage.sol\":718:732  infoMap[_addr] */\n      0xffffffffffffffffffffffffffffffffffffffff\n      and\n      0xffffffffffffffffffffffffffffffffffffffff\n      and\n      dup2\n      mstore\n      0x20\n      add\n      swap1\n      dup2\n      mstore\n      0x20\n      add\n      0x00\n      keccak256\n      0x00\n        /* \"contracts/1_Storage.sol\":711:732  delete infoMap[_addr] */\n      dup1\n      dup3\n      add\n      0x00\n      swap1\n      sstore\n      0x01\n      dup3\n      add\n      0x00\n      tag_30\n      swap2\n      swap1\n      tag_31\n      jump\t// in\n    tag_30:\n      0x02\n      dup3\n      add\n      exp(0x0100, 0x00)\n      dup2\n      sload\n      swap1\n      0xff\n      mul\n      not\n      and\n      swap1\n      sstore\n      pop\n      pop\n        /* \"contracts/1_Storage.sol\":757:767  msg.sender */\n      caller\n        /* \"contracts/1_Storage.sol\":747:768  logRemove(msg.sender) */\n      0xffffffffffffffffffffffffffffffffffffffff\n      and\n      0x19c1bc4527f80e0f3da4539e6e0799f0df322ec1cc5e8b7ff478fb510e0ea579\n      mload(0x40)\n      mload(0x40)\n      dup1\n      swap2\n      sub\n      swap1\n      log2\n        /* \"contracts/1_Storage.sol\":663:775  function remove(address _addr) public {... */\n      pop\n      jump\t// out\n        /* \"contracts/1_Storage.sol\":1033:1112  function retrieve() public view returns (uint256){... */\n    tag_13:\n        /* \"contracts/1_Storage.sol\":1074:1081  uint256 */\n      0x00\n        /* \"contracts/1_Storage.sol\":1099:1105  number */\n      sload(0x01)\n        /* \"contracts/1_Storage.sol\":1092:1105  return number */\n      swap1\n      pop\n        /* \"contracts/1_Storage.sol\":1033:1112  function retrieve() public view returns (uint256){... */\n      swap1\n      jump\t// out\n        /* \"contracts/1_Storage.sol\":888:952  function store(uint256 num) public {... */\n    tag_19:\n        /* \"contracts/1_Storage.sol\":942:945  num */\n      dup1\n        /* \"contracts/1_Storage.sol\":933:939  number */\n      0x01\n        /* \"contracts/1_Storage.sol\":933:945  number = num */\n      dup2\n      swap1\n      sstore\n      pop\n        /* \"contracts/1_Storage.sol\":888:952  function store(uint256 num) public {... */\n      pop\n      jump\t// out\n        /* \"contracts/1_Storage.sol\":464:657  function set(address _addr, int _ammount, string memory _message, bool _flag) public {... */\n    tag_23:\n        /* \"contracts/1_Storage.sol\":576:607  Info(_ammount, _message, _flag) */\n      mload(0x40)\n      dup1\n      0x60\n      add\n      0x40\n      mstore\n      dup1\n        /* \"contracts/1_Storage.sol\":581:589  _ammount */\n      dup5\n        /* \"contracts/1_Storage.sol\":576:607  Info(_ammount, _message, _flag) */\n      dup2\n      mstore\n      0x20\n      add\n        /* \"contracts/1_Storage.sol\":591:599  _message */\n      dup4\n        /* \"contracts/1_Storage.sol\":576:607  Info(_ammount, _message, _flag) */\n      dup2\n      mstore\n      0x20\n      add\n        /* \"contracts/1_Storage.sol\":601:606  _flag */\n      dup3\n        /* \"contracts/1_Storage.sol\":576:607  Info(_ammount, _message, _flag) */\n      iszero\n      iszero\n      dup2\n      mstore\n      pop\n        /* \"contracts/1_Storage.sol\":559:566  infoMap */\n      0x00\n        /* \"contracts/1_Storage.sol\":559:573  infoMap[_addr] */\n      dup1\n        /* \"contracts/1_Storage.sol\":567:572  _addr */\n      dup7\n        /* \"contracts/1_Storage.sol\":559:573  infoMap[_addr] */\n      0xffffffffffffffffffffffffffffffffffffffff\n      and\n      0xffffffffffffffffffffffffffffffffffffffff\n      and\n      dup2\n      mstore\n      0x20\n      add\n      swap1\n      dup2\n      mstore\n      0x20\n      add\n      0x00\n      keccak256\n        /* \"contracts/1_Storage.sol\":559:607  infoMap[_addr] = Info(_ammount, _message, _flag) */\n      0x00\n      dup3\n      add\n      mload\n      dup2\n      0x00\n      add\n      sstore\n      0x20\n      dup3\n      add\n      mload\n      dup2\n      0x01\n      add\n      swap1\n      dup2\n      tag_35\n      swap2\n      swap1\n      tag_36\n      jump\t// in\n    tag_35:\n      pop\n      0x40\n      dup3\n      add\n      mload\n      dup2\n      0x02\n      add\n      exp(0x0100, 0x00)\n      dup2\n      sload\n      dup2\n      0xff\n      mul\n      not\n      and\n      swap1\n      dup4\n      iszero\n      iszero\n      mul\n      or\n      swap1\n      sstore\n      pop\n      swap1\n      pop\n      pop\n        /* \"contracts/1_Storage.sol\":629:639  msg.sender */\n      caller\n        /* \"contracts/1_Storage.sol\":622:650  logSet(msg.sender, _message) */\n      0xffffffffffffffffffffffffffffffffffffffff\n      and\n      0x03a86756a20f3eee120fcfc99a0590f698304ba0fe5328ab87e33afd7e4ef496\n        /* \"contracts/1_Storage.sol\":641:649  _message */\n      dup4\n        /* \"contracts/1_Storage.sol\":622:650  logSet(msg.sender, _message) */\n      mload(0x40)\n      tag_37\n      swap2\n      swap1\n      tag_38\n      jump\t// in\n    tag_37:\n      mload(0x40)\n      dup1\n      swap2\n      sub\n      swap1\n      log2\n        /* \"contracts/1_Storage.sol\":464:657  function set(address _addr, int _ammount, string memory _message, bool _flag) public {... */\n      pop\n      pop\n      pop\n      pop\n      jump\t// out\n        /* \"contracts/1_Storage.sol\":311:350  mapping(address => Info) public infoMap */\n    tag_26:\n      mstore(0x20, 0x00)\n      dup1\n      0x00\n      mstore\n      keccak256(0x00, 0x40)\n      0x00\n      swap2\n      pop\n      swap1\n      pop\n      dup1\n      0x00\n      add\n      sload\n      swap1\n      dup1\n      0x01\n      add\n      dup1\n      sload\n      tag_39\n      swap1\n      tag_40\n      jump\t// in\n    tag_39:\n      dup1\n      0x1f\n      add\n      0x20\n      dup1\n      swap2\n      div\n      mul\n      0x20\n      add\n      mload(0x40)\n      swap1\n      dup2\n      add\n      0x40\n      mstore\n      dup1\n      swap3\n      swap2\n      swap1\n      dup2\n      dup2\n      mstore\n      0x20\n      add\n      dup3\n      dup1\n      sload\n      tag_41\n      swap1\n      tag_40\n      jump\t// in\n    tag_41:\n      dup1\n      iszero\n      tag_42\n      jumpi\n      dup1\n      0x1f\n      lt\n      tag_43\n      jumpi\n      0x0100\n      dup1\n      dup4\n      sload\n      div\n      mul\n      dup4\n      mstore\n      swap2\n      0x20\n      add\n      swap2\n      jump(tag_42)\n    tag_43:\n      dup3\n      add\n      swap2\n      swap1\n      0x00\n      mstore\n      keccak256(0x00, 0x20)\n      swap1\n    tag_44:\n      dup2\n      sload\n      dup2\n      mstore\n      swap1\n      0x01\n      add\n      swap1\n      0x20\n      add\n      dup1\n      dup4\n      gt\n      tag_44\n      jumpi\n      dup3\n      swap1\n      sub\n      0x1f\n      and\n      dup3\n      add\n      swap2\n    tag_42:\n      pop\n      pop\n      pop\n      pop\n      pop\n      swap1\n      dup1\n      0x02\n      add\n      0x00\n      swap1\n      sload\n      swap1\n      0x0100\n      exp\n      swap1\n      div\n      0xff\n      and\n      swap1\n      pop\n      dup4\n      jump\t// out\n    tag_31:\n      pop\n      dup1\n      sload\n      tag_45\n      swap1\n      tag_40\n      jump\t// in\n    tag_45:\n      0x00\n      dup3\n      sstore\n      dup1\n      0x1f\n      lt\n      tag_47\n      jumpi\n      pop\n      jump(tag_46)\n    tag_47:\n      0x1f\n      add\n      0x20\n      swap1\n      div\n      swap1\n      0x00\n      mstore\n      keccak256(0x00, 0x20)\n      swap1\n      dup2\n      add\n      swap1\n      tag_48\n      swap2\n      swap1\n      tag_49\n      jump\t// in\n    tag_48:\n    tag_46:\n      pop\n      jump\t// out\n    tag_49:\n    tag_50:\n      dup1\n      dup3\n      gt\n      iszero\n      tag_51\n      jumpi\n      0x00\n      dup2\n      0x00\n      swap1\n      sstore\n      pop\n      0x01\n      add\n      jump(tag_50)\n    tag_51:\n      pop\n      swap1\n      jump\t// out\n        /* \"#utility.yul\":7:82   */\n    tag_52:\n        /* \"#utility.yul\":40:46   */\n      0x00\n        /* \"#utility.yul\":73:75   */\n      0x40\n        /* \"#utility.yul\":67:76   */\n      mload\n        /* \"#utility.yul\":57:76   */\n      swap1\n      pop\n        /* \"#utility.yul\":7:82   */\n      swap1\n      jump\t// out\n        /* \"#utility.yul\":88:205   */\n    tag_53:\n        /* \"#utility.yul\":197:198   */\n      0x00\n        /* \"#utility.yul\":194:195   */\n      dup1\n        /* \"#utility.yul\":187:199   */\n      revert\n        /* \"#utility.yul\":211:328   */\n    tag_54:\n        /* \"#utility.yul\":320:321   */\n      0x00\n        /* \"#utility.yul\":317:318   */\n      dup1\n        /* \"#utility.yul\":310:322   */\n      revert\n        /* \"#utility.yul\":334:460   */\n    tag_55:\n        /* \"#utility.yul\":371:378   */\n      0x00\n        /* \"#utility.yul\":411:453   */\n      0xffffffffffffffffffffffffffffffffffffffff\n        /* \"#utility.yul\":404:409   */\n      dup3\n        /* \"#utility.yul\":400:454   */\n      and\n        /* \"#utility.yul\":389:454   */\n      swap1\n      pop\n        /* \"#utility.yul\":334:460   */\n      swap2\n      swap1\n      pop\n      jump\t// out\n        /* \"#utility.yul\":466:562   */\n    tag_56:\n        /* \"#utility.yul\":503:510   */\n      0x00\n        /* \"#utility.yul\":532:556   */\n      tag_107\n        /* \"#utility.yul\":550:555   */\n      dup3\n        /* \"#utility.yul\":532:556   */\n      tag_55\n      jump\t// in\n    tag_107:\n        /* \"#utility.yul\":521:556   */\n      swap1\n      pop\n        /* \"#utility.yul\":466:562   */\n      swap2\n      swap1\n      pop\n      jump\t// out\n        /* \"#utility.yul\":568:690   */\n    tag_57:\n        /* \"#utility.yul\":641:665   */\n      tag_109\n        /* \"#utility.yul\":659:664   */\n      dup2\n        /* \"#utility.yul\":641:665   */\n      tag_56\n      jump\t// in\n    tag_109:\n        /* \"#utility.yul\":634:639   */\n      dup2\n        /* \"#utility.yul\":631:666   */\n      eq\n        /* \"#utility.yul\":621:684   */\n      tag_110\n      jumpi\n        /* \"#utility.yul\":680:681   */\n      0x00\n        /* \"#utility.yul\":677:678   */\n      dup1\n        /* \"#utility.yul\":670:682   */\n      revert\n        /* \"#utility.yul\":621:684   */\n    tag_110:\n        /* \"#utility.yul\":568:690   */\n      pop\n      jump\t// out\n        /* \"#utility.yul\":696:835   */\n    tag_58:\n        /* \"#utility.yul\":742:747   */\n      0x00\n        /* \"#utility.yul\":780:786   */\n      dup2\n        /* \"#utility.yul\":767:787   */\n      calldataload\n        /* \"#utility.yul\":758:787   */\n      swap1\n      pop\n        /* \"#utility.yul\":796:829   */\n      tag_112\n        /* \"#utility.yul\":823:828   */\n      dup2\n        /* \"#utility.yul\":796:829   */\n      tag_57\n      jump\t// in\n    tag_112:\n        /* \"#utility.yul\":696:835   */\n      swap3\n      swap2\n      pop\n      pop\n      jump\t// out\n        /* \"#utility.yul\":841:1170   */\n    tag_10:\n        /* \"#utility.yul\":900:906   */\n      0x00\n        /* \"#utility.yul\":949:951   */\n      0x20\n        /* \"#utility.yul\":937:946   */\n      dup3\n        /* \"#utility.yul\":928:935   */\n      dup5\n        /* \"#utility.yul\":924:947   */\n      sub\n        /* \"#utility.yul\":920:952   */\n      slt\n        /* \"#utility.yul\":917:1036   */\n      iszero\n      tag_114\n      jumpi\n        /* \"#utility.yul\":955:1034   */\n      tag_115\n      tag_53\n      jump\t// in\n    tag_115:\n        /* \"#utility.yul\":917:1036   */\n    tag_114:\n        /* \"#utility.yul\":1075:1076   */\n      0x00\n        /* \"#utility.yul\":1100:1153   */\n      tag_116\n        /* \"#utility.yul\":1145:1152   */\n      dup5\n        /* \"#utility.yul\":1136:1142   */\n      dup3\n        /* \"#utility.yul\":1125:1134   */\n      dup6\n        /* \"#utility.yul\":1121:1143   */\n      add\n        /* \"#utility.yul\":1100:1153   */\n      tag_58\n      jump\t// in\n    tag_116:\n        /* \"#utility.yul\":1090:1153   */\n      swap2\n      pop\n        /* \"#utility.yul\":1046:1163   */\n      pop\n        /* \"#utility.yul\":841:1170   */\n      swap3\n      swap2\n      pop\n      pop\n      jump\t// out\n        /* \"#utility.yul\":1176:1253   */\n    tag_59:\n        /* \"#utility.yul\":1213:1220   */\n      0x00\n        /* \"#utility.yul\":1242:1247   */\n      dup2\n        /* \"#utility.yul\":1231:1247   */\n      swap1\n      pop\n        /* \"#utility.yul\":1176:1253   */\n      swap2\n      swap1\n      pop\n      jump\t// out\n        /* \"#utility.yul\":1259:1377   */\n    tag_60:\n        /* \"#utility.yul\":1346:1370   */\n      tag_119\n        /* \"#utility.yul\":1364:1369   */\n      dup2\n        /* \"#utility.yul\":1346:1370   */\n      tag_59\n      jump\t// in\n    tag_119:\n        /* \"#utility.yul\":1341:1344   */\n      dup3\n        /* \"#utility.yul\":1334:1371   */\n      mstore\n        /* \"#utility.yul\":1259:1377   */\n      pop\n      pop\n      jump\t// out\n        /* \"#utility.yul\":1383:1605   */\n    tag_15:\n        /* \"#utility.yul\":1476:1480   */\n      0x00\n        /* \"#utility.yul\":1514:1516   */\n      0x20\n        /* \"#utility.yul\":1503:1512   */\n      dup3\n        /* \"#utility.yul\":1499:1517   */\n      add\n        /* \"#utility.yul\":1491:1517   */\n      swap1\n      pop\n        /* \"#utility.yul\":1527:1598   */\n      tag_121\n        /* \"#utility.yul\":1595:1596   */\n      0x00\n        /* \"#utility.yul\":1584:1593   */\n      dup4\n        /* \"#utility.yul\":1580:1597   */\n      add\n        /* \"#utility.yul\":1571:1577   */\n      dup5\n        /* \"#utility.yul\":1527:1598   */\n      tag_60\n      jump\t// in\n    tag_121:\n        /* \"#utility.yul\":1383:1605   */\n      swap3\n      swap2\n      pop\n      pop\n      jump\t// out\n        /* \"#utility.yul\":1611:1733   */\n    tag_61:\n        /* \"#utility.yul\":1684:1708   */\n      tag_123\n        /* \"#utility.yul\":1702:1707   */\n      dup2\n        /* \"#utility.yul\":1684:1708   */\n      tag_59\n      jump\t// in\n    tag_123:\n        /* \"#utility.yul\":1677:1682   */\n      dup2\n        /* \"#utility.yul\":1674:1709   */\n      eq\n        /* \"#utility.yul\":1664:1727   */\n      tag_124\n      jumpi\n        /* \"#utility.yul\":1723:1724   */\n      0x00\n        /* \"#utility.yul\":1720:1721   */\n      dup1\n        /* \"#utility.yul\":1713:1725   */\n      revert\n        /* \"#utility.yul\":1664:1727   */\n    tag_124:\n        /* \"#utility.yul\":1611:1733   */\n      pop\n      jump\t// out\n        /* \"#utility.yul\":1739:1878   */\n    tag_62:\n        /* \"#utility.yul\":1785:1790   */\n      0x00\n        /* \"#utility.yul\":1823:1829   */\n      dup2\n        /* \"#utility.yul\":1810:1830   */\n      calldataload\n        /* \"#utility.yul\":1801:1830   */\n      swap1\n      pop\n        /* \"#utility.yul\":1839:1872   */\n      tag_126\n        /* \"#utility.yul\":1866:1871   */\n      dup2\n        /* \"#utility.yul\":1839:1872   */\n      tag_61\n      jump\t// in\n    tag_126:\n        /* \"#utility.yul\":1739:1878   */\n      swap3\n      swap2\n      pop\n      pop\n      jump\t// out\n        /* \"#utility.yul\":1884:2213   */\n    tag_18:\n        /* \"#utility.yul\":1943:1949   */\n      0x00\n        /* \"#utility.yul\":1992:1994   */\n      0x20\n        /* \"#utility.yul\":1980:1989   */\n      dup3\n        /* \"#utility.yul\":1971:1978   */\n      dup5\n        /* \"#utility.yul\":1967:1990   */\n      sub\n        /* \"#utility.yul\":1963:1995   */\n      slt\n        /* \"#utility.yul\":1960:2079   */\n      iszero\n      tag_128\n      jumpi\n        /* \"#utility.yul\":1998:2077   */\n      tag_129\n      tag_53\n      jump\t// in\n    tag_129:\n        /* \"#utility.yul\":1960:2079   */\n    tag_128:\n        /* \"#utility.yul\":2118:2119   */\n      0x00\n        /* \"#utility.yul\":2143:2196   */\n      tag_130\n        /* \"#utility.yul\":2188:2195   */\n      dup5\n        /* \"#utility.yul\":2179:2185   */\n      dup3\n        /* \"#utility.yul\":2168:2177   */\n      dup6\n        /* \"#utility.yul\":2164:2186   */\n      add\n        /* \"#utility.yul\":2143:2196   */\n      tag_62\n      jump\t// in\n    tag_130:\n        /* \"#utility.yul\":2133:2196   */\n      swap2\n      pop\n        /* \"#utility.yul\":2089:2206   */\n      pop\n        /* \"#utility.yul\":1884:2213   */\n      swap3\n      swap2\n      pop\n      pop\n      jump\t// out\n        /* \"#utility.yul\":2219:2295   */\n    tag_63:\n        /* \"#utility.yul\":2255:2262   */\n      0x00\n        /* \"#utility.yul\":2284:2289   */\n      dup2\n        /* \"#utility.yul\":2273:2289   */\n      swap1\n      pop\n        /* \"#utility.yul\":2219:2295   */\n      swap2\n      swap1\n      pop\n      jump\t// out\n        /* \"#utility.yul\":2301:2421   */\n    tag_64:\n        /* \"#utility.yul\":2373:2396   */\n      tag_133\n        /* \"#utility.yul\":2390:2395   */\n      dup2\n        /* \"#utility.yul\":2373:2396   */\n      tag_63\n      jump\t// in\n    tag_133:\n        /* \"#utility.yul\":2366:2371   */\n      dup2\n        /* \"#utility.yul\":2363:2397   */\n      eq\n        /* \"#utility.yul\":2353:2415   */\n      tag_134\n      jumpi\n        /* \"#utility.yul\":2411:2412   */\n      0x00\n        /* \"#utility.yul\":2408:2409   */\n      dup1\n        /* \"#utility.yul\":2401:2413   */\n      revert\n        /* \"#utility.yul\":2353:2415   */\n    tag_134:\n        /* \"#utility.yul\":2301:2421   */\n      pop\n      jump\t// out\n        /* \"#utility.yul\":2427:2564   */\n    tag_65:\n        /* \"#utility.yul\":2472:2477   */\n      0x00\n        /* \"#utility.yul\":2510:2516   */\n      dup2\n        /* \"#utility.yul\":2497:2517   */\n      calldataload\n        /* \"#utility.yul\":2488:2517   */\n      swap1\n      pop\n        /* \"#utility.yul\":2526:2558   */\n      tag_136\n        /* \"#utility.yul\":2552:2557   */\n      dup2\n        /* \"#utility.yul\":2526:2558   */\n      tag_64\n      jump\t// in\n    tag_136:\n        /* \"#utility.yul\":2427:2564   */\n      swap3\n      swap2\n      pop\n      pop\n      jump\t// out\n        /* \"#utility.yul\":2570:2687   */\n    tag_66:\n        /* \"#utility.yul\":2679:2680   */\n      0x00\n        /* \"#utility.yul\":2676:2677   */\n      dup1\n        /* \"#utility.yul\":2669:2681   */\n      revert\n        /* \"#utility.yul\":2693:2810   */\n    tag_67:\n        /* \"#utility.yul\":2802:2803   */\n      0x00\n        /* \"#utility.yul\":2799:2800   */\n      dup1\n        /* \"#utility.yul\":2792:2804   */\n      revert\n        /* \"#utility.yul\":2816:2918   */\n    tag_68:\n        /* \"#utility.yul\":2857:2863   */\n      0x00\n        /* \"#utility.yul\":2908:2910   */\n      0x1f\n        /* \"#utility.yul\":2904:2911   */\n      not\n        /* \"#utility.yul\":2899:2901   */\n      0x1f\n        /* \"#utility.yul\":2892:2897   */\n      dup4\n        /* \"#utility.yul\":2888:2902   */\n      add\n        /* \"#utility.yul\":2884:2912   */\n      and\n        /* \"#utility.yul\":2874:2912   */\n      swap1\n      pop\n        /* \"#utility.yul\":2816:2918   */\n      swap2\n      swap1\n      pop\n      jump\t// out\n        /* \"#utility.yul\":2924:3104   */\n    tag_69:\n        /* \"#utility.yul\":2972:3049   */\n      0x4e487b7100000000000000000000000000000000000000000000000000000000\n        /* \"#utility.yul\":2969:2970   */\n      0x00\n        /* \"#utility.yul\":2962:3050   */\n      mstore\n        /* \"#utility.yul\":3069:3073   */\n      0x41\n        /* \"#utility.yul\":3066:3067   */\n      0x04\n        /* \"#utility.yul\":3059:3074   */\n      mstore\n        /* \"#utility.yul\":3093:3097   */\n      0x24\n        /* \"#utility.yul\":3090:3091   */\n      0x00\n        /* \"#utility.yul\":3083:3098   */\n      revert\n        /* \"#utility.yul\":3110:3391   */\n    tag_70:\n        /* \"#utility.yul\":3193:3220   */\n      tag_142\n        /* \"#utility.yul\":3215:3219   */\n      dup3\n        /* \"#utility.yul\":3193:3220   */\n      tag_68\n      jump\t// in\n    tag_142:\n        /* \"#utility.yul\":3185:3191   */\n      dup2\n        /* \"#utility.yul\":3181:3221   */\n      add\n        /* \"#utility.yul\":3323:3329   */\n      dup2\n        /* \"#utility.yul\":3311:3321   */\n      dup2\n        /* \"#utility.yul\":3308:3330   */\n      lt\n        /* \"#utility.yul\":3287:3305   */\n      0xffffffffffffffff\n        /* \"#utility.yul\":3275:3285   */\n      dup3\n        /* \"#utility.yul\":3272:3306   */\n      gt\n        /* \"#utility.yul\":3269:3331   */\n      or\n        /* \"#utility.yul\":3266:3354   */\n      iszero\n      tag_143\n      jumpi\n        /* \"#utility.yul\":3334:3352   */\n      tag_144\n      tag_69\n      jump\t// in\n    tag_144:\n        /* \"#utility.yul\":3266:3354   */\n    tag_143:\n        /* \"#utility.yul\":3374:3384   */\n      dup1\n        /* \"#utility.yul\":3370:3372   */\n      0x40\n        /* \"#utility.yul\":3363:3385   */\n      mstore\n        /* \"#utility.yul\":3153:3391   */\n      pop\n        /* \"#utility.yul\":3110:3391   */\n      pop\n      pop\n      jump\t// out\n        /* \"#utility.yul\":3397:3526   */\n    tag_71:\n        /* \"#utility.yul\":3431:3437   */\n      0x00\n        /* \"#utility.yul\":3458:3478   */\n      tag_146\n      tag_52\n      jump\t// in\n    tag_146:\n        /* \"#utility.yul\":3448:3478   */\n      swap1\n      pop\n        /* \"#utility.yul\":3487:3520   */\n      tag_147\n        /* \"#utility.yul\":3515:3519   */\n      dup3\n        /* \"#utility.yul\":3507:3513   */\n      dup3\n        /* \"#utility.yul\":3487:3520   */\n      tag_70\n      jump\t// in\n    tag_147:\n        /* \"#utility.yul\":3397:3526   */\n      swap2\n      swap1\n      pop\n      jump\t// out\n        /* \"#utility.yul\":3532:3840   */\n    tag_72:\n        /* \"#utility.yul\":3594:3598   */\n      0x00\n        /* \"#utility.yul\":3684:3702   */\n      0xffffffffffffffff\n        /* \"#utility.yul\":3676:3682   */\n      dup3\n        /* \"#utility.yul\":3673:3703   */\n      gt\n        /* \"#utility.yul\":3670:3726   */\n      iszero\n      tag_149\n      jumpi\n        /* \"#utility.yul\":3706:3724   */\n      tag_150\n      tag_69\n      jump\t// in\n    tag_150:\n        /* \"#utility.yul\":3670:3726   */\n    tag_149:\n        /* \"#utility.yul\":3744:3773   */\n      tag_151\n        /* \"#utility.yul\":3766:3772   */\n      dup3\n        /* \"#utility.yul\":3744:3773   */\n      tag_68\n      jump\t// in\n    tag_151:\n        /* \"#utility.yul\":3736:3773   */\n      swap1\n      pop\n        /* \"#utility.yul\":3828:3832   */\n      0x20\n        /* \"#utility.yul\":3822:3826   */\n      dup2\n        /* \"#utility.yul\":3818:3833   */\n      add\n        /* \"#utility.yul\":3810:3833   */\n      swap1\n      pop\n        /* \"#utility.yul\":3532:3840   */\n      swap2\n      swap1\n      pop\n      jump\t// out\n        /* \"#utility.yul\":3846:3992   */\n    tag_73:\n        /* \"#utility.yul\":3943:3949   */\n      dup3\n        /* \"#utility.yul\":3938:3941   */\n      dup2\n        /* \"#utility.yul\":3933:3936   */\n      dup4\n        /* \"#utility.yul\":3920:3950   */\n      calldatacopy\n        /* \"#utility.yul\":3984:3985   */\n      0x00\n        /* \"#utility.yul\":3975:3981   */\n      dup4\n        /* \"#utility.yul\":3970:3973   */\n      dup4\n        /* \"#utility.yul\":3966:3982   */\n      add\n        /* \"#utility.yul\":3959:3986   */\n      mstore\n        /* \"#utility.yul\":3846:3992   */\n      pop\n      pop\n      pop\n      jump\t// out\n        /* \"#utility.yul\":3998:4423   */\n    tag_74:\n        /* \"#utility.yul\":4076:4081   */\n      0x00\n        /* \"#utility.yul\":4101:4167   */\n      tag_154\n        /* \"#utility.yul\":4117:4166   */\n      tag_155\n        /* \"#utility.yul\":4159:4165   */\n      dup5\n        /* \"#utility.yul\":4117:4166   */\n      tag_72\n      jump\t// in\n    tag_155:\n        /* \"#utility.yul\":4101:4167   */\n      tag_71\n      jump\t// in\n    tag_154:\n        /* \"#utility.yul\":4092:4167   */\n      swap1\n      pop\n        /* \"#utility.yul\":4190:4196   */\n      dup3\n        /* \"#utility.yul\":4183:4188   */\n      dup2\n        /* \"#utility.yul\":4176:4197   */\n      mstore\n        /* \"#utility.yul\":4228:4232   */\n      0x20\n        /* \"#utility.yul\":4221:4226   */\n      dup2\n        /* \"#utility.yul\":4217:4233   */\n      add\n        /* \"#utility.yul\":4266:4269   */\n      dup5\n        /* \"#utility.yul\":4257:4263   */\n      dup5\n        /* \"#utility.yul\":4252:4255   */\n      dup5\n        /* \"#utility.yul\":4248:4264   */\n      add\n        /* \"#utility.yul\":4245:4270   */\n      gt\n        /* \"#utility.yul\":4242:4354   */\n      iszero\n      tag_156\n      jumpi\n        /* \"#utility.yul\":4273:4352   */\n      tag_157\n      tag_67\n      jump\t// in\n    tag_157:\n        /* \"#utility.yul\":4242:4354   */\n    tag_156:\n        /* \"#utility.yul\":4363:4417   */\n      tag_158\n        /* \"#utility.yul\":4410:4416   */\n      dup5\n        /* \"#utility.yul\":4405:4408   */\n      dup3\n        /* \"#utility.yul\":4400:4403   */\n      dup6\n        /* \"#utility.yul\":4363:4417   */\n      tag_73\n      jump\t// in\n    tag_158:\n        /* \"#utility.yul\":4082:4423   */\n      pop\n        /* \"#utility.yul\":3998:4423   */\n      swap4\n      swap3\n      pop\n      pop\n      pop\n      jump\t// out\n        /* \"#utility.yul\":4443:4783   */\n    tag_75:\n        /* \"#utility.yul\":4499:4504   */\n      0x00\n        /* \"#utility.yul\":4548:4551   */\n      dup3\n        /* \"#utility.yul\":4541:4545   */\n      0x1f\n        /* \"#utility.yul\":4533:4539   */\n      dup4\n        /* \"#utility.yul\":4529:4546   */\n      add\n        /* \"#utility.yul\":4525:4552   */\n      slt\n        /* \"#utility.yul\":4515:4637   */\n      tag_160\n      jumpi\n        /* \"#utility.yul\":4556:4635   */\n      tag_161\n      tag_66\n      jump\t// in\n    tag_161:\n        /* \"#utility.yul\":4515:4637   */\n    tag_160:\n        /* \"#utility.yul\":4673:4679   */\n      dup2\n        /* \"#utility.yul\":4660:4680   */\n      calldataload\n        /* \"#utility.yul\":4698:4777   */\n      tag_162\n        /* \"#utility.yul\":4773:4776   */\n      dup5\n        /* \"#utility.yul\":4765:4771   */\n      dup3\n        /* \"#utility.yul\":4758:4762   */\n      0x20\n        /* \"#utility.yul\":4750:4756   */\n      dup7\n        /* \"#utility.yul\":4746:4763   */\n      add\n        /* \"#utility.yul\":4698:4777   */\n      tag_74\n      jump\t// in\n    tag_162:\n        /* \"#utility.yul\":4689:4777   */\n      swap2\n      pop\n        /* \"#utility.yul\":4505:4783   */\n      pop\n        /* \"#utility.yul\":4443:4783   */\n      swap3\n      swap2\n      pop\n      pop\n      jump\t// out\n        /* \"#utility.yul\":4789:4879   */\n    tag_76:\n        /* \"#utility.yul\":4823:4830   */\n      0x00\n        /* \"#utility.yul\":4866:4871   */\n      dup2\n        /* \"#utility.yul\":4859:4872   */\n      iszero\n        /* \"#utility.yul\":4852:4873   */\n      iszero\n        /* \"#utility.yul\":4841:4873   */\n      swap1\n      pop\n        /* \"#utility.yul\":4789:4879   */\n      swap2\n      swap1\n      pop\n      jump\t// out\n        /* \"#utility.yul\":4885:5001   */\n    tag_77:\n        /* \"#utility.yul\":4955:4976   */\n      tag_165\n        /* \"#utility.yul\":4970:4975   */\n      dup2\n        /* \"#utility.yul\":4955:4976   */\n      tag_76\n      jump\t// in\n    tag_165:\n        /* \"#utility.yul\":4948:4953   */\n      dup2\n        /* \"#utility.yul\":4945:4977   */\n      eq\n        /* \"#utility.yul\":4935:4995   */\n      tag_166\n      jumpi\n        /* \"#utility.yul\":4991:4992   */\n      0x00\n        /* \"#utility.yul\":4988:4989   */\n      dup1\n        /* \"#utility.yul\":4981:4993   */\n      revert\n        /* \"#utility.yul\":4935:4995   */\n    tag_166:\n        /* \"#utility.yul\":4885:5001   */\n      pop\n      jump\t// out\n        /* \"#utility.yul\":5007:5140   */\n    tag_78:\n        /* \"#utility.yul\":5050:5055   */\n      0x00\n        /* \"#utility.yul\":5088:5094   */\n      dup2\n        /* \"#utility.yul\":5075:5095   */\n      calldataload\n        /* \"#utility.yul\":5066:5095   */\n      swap1\n      pop\n        /* \"#utility.yul\":5104:5134   */\n      tag_168\n        /* \"#utility.yul\":5128:5133   */\n      dup2\n        /* \"#utility.yul\":5104:5134   */\n      tag_77\n      jump\t// in\n    tag_168:\n        /* \"#utility.yul\":5007:5140   */\n      swap3\n      swap2\n      pop\n      pop\n      jump\t// out\n        /* \"#utility.yul\":5146:6083   */\n    tag_22:\n        /* \"#utility.yul\":5238:5244   */\n      0x00\n        /* \"#utility.yul\":5246:5252   */\n      dup1\n        /* \"#utility.yul\":5254:5260   */\n      0x00\n        /* \"#utility.yul\":5262:5268   */\n      dup1\n        /* \"#utility.yul\":5311:5314   */\n      0x80\n        /* \"#utility.yul\":5299:5308   */\n      dup6\n        /* \"#utility.yul\":5290:5297   */\n      dup8\n        /* \"#utility.yul\":5286:5309   */\n      sub\n        /* \"#utility.yul\":5282:5315   */\n      slt\n        /* \"#utility.yul\":5279:5399   */\n      iszero\n      tag_170\n      jumpi\n        /* \"#utility.yul\":5318:5397   */\n      tag_171\n      tag_53\n      jump\t// in\n    tag_171:\n        /* \"#utility.yul\":5279:5399   */\n    tag_170:\n        /* \"#utility.yul\":5438:5439   */\n      0x00\n        /* \"#utility.yul\":5463:5516   */\n      tag_172\n        /* \"#utility.yul\":5508:5515   */\n      dup8\n        /* \"#utility.yul\":5499:5505   */\n      dup3\n        /* \"#utility.yul\":5488:5497   */\n      dup9\n        /* \"#utility.yul\":5484:5506   */\n      add\n        /* \"#utility.yul\":5463:5516   */\n      tag_58\n      jump\t// in\n    tag_172:\n        /* \"#utility.yul\":5453:5516   */\n      swap5\n      pop\n        /* \"#utility.yul\":5409:5526   */\n      pop\n        /* \"#utility.yul\":5565:5567   */\n      0x20\n        /* \"#utility.yul\":5591:5643   */\n      tag_173\n        /* \"#utility.yul\":5635:5642   */\n      dup8\n        /* \"#utility.yul\":5626:5632   */\n      dup3\n        /* \"#utility.yul\":5615:5624   */\n      dup9\n        /* \"#utility.yul\":5611:5633   */\n      add\n        /* \"#utility.yul\":5591:5643   */\n      tag_65\n      jump\t// in\n    tag_173:\n        /* \"#utility.yul\":5581:5643   */\n      swap4\n      pop\n        /* \"#utility.yul\":5536:5653   */\n      pop\n        /* \"#utility.yul\":5720:5722   */\n      0x40\n        /* \"#utility.yul\":5709:5718   */\n      dup6\n        /* \"#utility.yul\":5705:5723   */\n      add\n        /* \"#utility.yul\":5692:5724   */\n      calldataload\n        /* \"#utility.yul\":5751:5769   */\n      0xffffffffffffffff\n        /* \"#utility.yul\":5743:5749   */\n      dup2\n        /* \"#utility.yul\":5740:5770   */\n      gt\n        /* \"#utility.yul\":5737:5854   */\n      iszero\n      tag_174\n      jumpi\n        /* \"#utility.yul\":5773:5852   */\n      tag_175\n      tag_54\n      jump\t// in\n    tag_175:\n        /* \"#utility.yul\":5737:5854   */\n    tag_174:\n        /* \"#utility.yul\":5878:5941   */\n      tag_176\n        /* \"#utility.yul\":5933:5940   */\n      dup8\n        /* \"#utility.yul\":5924:5930   */\n      dup3\n        /* \"#utility.yul\":5913:5922   */\n      dup9\n        /* \"#utility.yul\":5909:5931   */\n      add\n        /* \"#utility.yul\":5878:5941   */\n      tag_75\n      jump\t// in\n    tag_176:\n        /* \"#utility.yul\":5868:5941   */\n      swap3\n      pop\n        /* \"#utility.yul\":5663:5951   */\n      pop\n        /* \"#utility.yul\":5990:5992   */\n      0x60\n        /* \"#utility.yul\":6016:6066   */\n      tag_177\n        /* \"#utility.yul\":6058:6065   */\n      dup8\n        /* \"#utility.yul\":6049:6055   */\n      dup3\n        /* \"#utility.yul\":6038:6047   */\n      dup9\n        /* \"#utility.yul\":6034:6056   */\n      add\n        /* \"#utility.yul\":6016:6066   */\n      tag_78\n      jump\t// in\n    tag_177:\n        /* \"#utility.yul\":6006:6066   */\n      swap2\n      pop\n        /* \"#utility.yul\":5961:6076   */\n      pop\n        /* \"#utility.yul\":5146:6083   */\n      swap3\n      swap6\n      swap2\n      swap5\n      pop\n      swap3\n      pop\n      jump\t// out\n        /* \"#utility.yul\":6089:6204   */\n    tag_79:\n        /* \"#utility.yul\":6174:6197   */\n      tag_179\n        /* \"#utility.yul\":6191:6196   */\n      dup2\n        /* \"#utility.yul\":6174:6197   */\n      tag_63\n      jump\t// in\n    tag_179:\n        /* \"#utility.yul\":6169:6172   */\n      dup3\n        /* \"#utility.yul\":6162:6198   */\n      mstore\n        /* \"#utility.yul\":6089:6204   */\n      pop\n      pop\n      jump\t// out\n        /* \"#utility.yul\":6210:6309   */\n    tag_80:\n        /* \"#utility.yul\":6262:6268   */\n      0x00\n        /* \"#utility.yul\":6296:6301   */\n      dup2\n        /* \"#utility.yul\":6290:6302   */\n      mload\n        /* \"#utility.yul\":6280:6302   */\n      swap1\n      pop\n        /* \"#utility.yul\":6210:6309   */\n      swap2\n      swap1\n      pop\n      jump\t// out\n        /* \"#utility.yul\":6315:6484   */\n    tag_81:\n        /* \"#utility.yul\":6399:6410   */\n      0x00\n        /* \"#utility.yul\":6433:6439   */\n      dup3\n        /* \"#utility.yul\":6428:6431   */\n      dup3\n        /* \"#utility.yul\":6421:6440   */\n      mstore\n        /* \"#utility.yul\":6473:6477   */\n      0x20\n        /* \"#utility.yul\":6468:6471   */\n      dup3\n        /* \"#utility.yul\":6464:6478   */\n      add\n        /* \"#utility.yul\":6449:6478   */\n      swap1\n      pop\n        /* \"#utility.yul\":6315:6484   */\n      swap3\n      swap2\n      pop\n      pop\n      jump\t// out\n        /* \"#utility.yul\":6490:6736   */\n    tag_82:\n        /* \"#utility.yul\":6571:6572   */\n      0x00\n        /* \"#utility.yul\":6581:6694   */\n    tag_183:\n        /* \"#utility.yul\":6595:6601   */\n      dup4\n        /* \"#utility.yul\":6592:6593   */\n      dup2\n        /* \"#utility.yul\":6589:6602   */\n      lt\n        /* \"#utility.yul\":6581:6694   */\n      iszero\n      tag_185\n      jumpi\n        /* \"#utility.yul\":6680:6681   */\n      dup1\n        /* \"#utility.yul\":6675:6678   */\n      dup3\n        /* \"#utility.yul\":6671:6682   */\n      add\n        /* \"#utility.yul\":6665:6683   */\n      mload\n        /* \"#utility.yul\":6661:6662   */\n      dup2\n        /* \"#utility.yul\":6656:6659   */\n      dup5\n        /* \"#utility.yul\":6652:6663   */\n      add\n        /* \"#utility.yul\":6645:6684   */\n      mstore\n        /* \"#utility.yul\":6617:6619   */\n      0x20\n        /* \"#utility.yul\":6614:6615   */\n      dup2\n        /* \"#utility.yul\":6610:6620   */\n      add\n        /* \"#utility.yul\":6605:6620   */\n      swap1\n      pop\n        /* \"#utility.yul\":6581:6694   */\n      jump(tag_183)\n    tag_185:\n        /* \"#utility.yul\":6728:6729   */\n      0x00\n        /* \"#utility.yul\":6719:6725   */\n      dup5\n        /* \"#utility.yul\":6714:6717   */\n      dup5\n        /* \"#utility.yul\":6710:6726   */\n      add\n        /* \"#utility.yul\":6703:6730   */\n      mstore\n        /* \"#utility.yul\":6552:6736   */\n      pop\n        /* \"#utility.yul\":6490:6736   */\n      pop\n      pop\n      pop\n      jump\t// out\n        /* \"#utility.yul\":6742:7119   */\n    tag_83:\n        /* \"#utility.yul\":6830:6833   */\n      0x00\n        /* \"#utility.yul\":6858:6897   */\n      tag_187\n        /* \"#utility.yul\":6891:6896   */\n      dup3\n        /* \"#utility.yul\":6858:6897   */\n      tag_80\n      jump\t// in\n    tag_187:\n        /* \"#utility.yul\":6913:6984   */\n      tag_188\n        /* \"#utility.yul\":6977:6983   */\n      dup2\n        /* \"#utility.yul\":6972:6975   */\n      dup6\n        /* \"#utility.yul\":6913:6984   */\n      tag_81\n      jump\t// in\n    tag_188:\n        /* \"#utility.yul\":6906:6984   */\n      swap4\n      pop\n        /* \"#utility.yul\":6993:7058   */\n      tag_189\n        /* \"#utility.yul\":7051:7057   */\n      dup2\n        /* \"#utility.yul\":7046:7049   */\n      dup6\n        /* \"#utility.yul\":7039:7043   */\n      0x20\n        /* \"#utility.yul\":7032:7037   */\n      dup7\n        /* \"#utility.yul\":7028:7044   */\n      add\n        /* \"#utility.yul\":6993:7058   */\n      tag_82\n      jump\t// in\n    tag_189:\n        /* \"#utility.yul\":7083:7112   */\n      tag_190\n        /* \"#utility.yul\":7105:7111   */\n      dup2\n        /* \"#utility.yul\":7083:7112   */\n      tag_68\n      jump\t// in\n    tag_190:\n        /* \"#utility.yul\":7078:7081   */\n      dup5\n        /* \"#utility.yul\":7074:7113   */\n      add\n        /* \"#utility.yul\":7067:7113   */\n      swap2\n      pop\n        /* \"#utility.yul\":6834:7119   */\n      pop\n        /* \"#utility.yul\":6742:7119   */\n      swap3\n      swap2\n      pop\n      pop\n      jump\t// out\n        /* \"#utility.yul\":7125:7234   */\n    tag_84:\n        /* \"#utility.yul\":7206:7227   */\n      tag_192\n        /* \"#utility.yul\":7221:7226   */\n      dup2\n        /* \"#utility.yul\":7206:7227   */\n      tag_76\n      jump\t// in\n    tag_192:\n        /* \"#utility.yul\":7201:7204   */\n      dup3\n        /* \"#utility.yul\":7194:7228   */\n      mstore\n        /* \"#utility.yul\":7125:7234   */\n      pop\n      pop\n      jump\t// out\n        /* \"#utility.yul\":7240:7757   */\n    tag_28:\n        /* \"#utility.yul\":7401:7405   */\n      0x00\n        /* \"#utility.yul\":7439:7441   */\n      0x60\n        /* \"#utility.yul\":7428:7437   */\n      dup3\n        /* \"#utility.yul\":7424:7442   */\n      add\n        /* \"#utility.yul\":7416:7442   */\n      swap1\n      pop\n        /* \"#utility.yul\":7452:7521   */\n      tag_194\n        /* \"#utility.yul\":7518:7519   */\n      0x00\n        /* \"#utility.yul\":7507:7516   */\n      dup4\n        /* \"#utility.yul\":7503:7520   */\n      add\n        /* \"#utility.yul\":7494:7500   */\n      dup7\n        /* \"#utility.yul\":7452:7521   */\n      tag_79\n      jump\t// in\n    tag_194:\n        /* \"#utility.yul\":7568:7577   */\n      dup2\n        /* \"#utility.yul\":7562:7566   */\n      dup2\n        /* \"#utility.yul\":7558:7578   */\n      sub\n        /* \"#utility.yul\":7553:7555   */\n      0x20\n        /* \"#utility.yul\":7542:7551   */\n      dup4\n        /* \"#utility.yul\":7538:7556   */\n      add\n        /* \"#utility.yul\":7531:7579   */\n      mstore\n        /* \"#utility.yul\":7596:7674   */\n      tag_195\n        /* \"#utility.yul\":7669:7673   */\n      dup2\n        /* \"#utility.yul\":7660:7666   */\n      dup6\n        /* \"#utility.yul\":7596:7674   */\n      tag_83\n      jump\t// in\n    tag_195:\n        /* \"#utility.yul\":7588:7674   */\n      swap1\n      pop\n        /* \"#utility.yul\":7684:7750   */\n      tag_196\n        /* \"#utility.yul\":7746:7748   */\n      0x40\n        /* \"#utility.yul\":7735:7744   */\n      dup4\n        /* \"#utility.yul\":7731:7749   */\n      add\n        /* \"#utility.yul\":7722:7728   */\n      dup5\n        /* \"#utility.yul\":7684:7750   */\n      tag_84\n      jump\t// in\n    tag_196:\n        /* \"#utility.yul\":7240:7757   */\n      swap5\n      swap4\n      pop\n      pop\n      pop\n      pop\n      jump\t// out\n        /* \"#utility.yul\":7763:7943   */\n    tag_85:\n        /* \"#utility.yul\":7811:7888   */\n      0x4e487b7100000000000000000000000000000000000000000000000000000000\n        /* \"#utility.yul\":7808:7809   */\n      0x00\n        /* \"#utility.yul\":7801:7889   */\n      mstore\n        /* \"#utility.yul\":7908:7912   */\n      0x22\n        /* \"#utility.yul\":7905:7906   */\n      0x04\n        /* \"#utility.yul\":7898:7913   */\n      mstore\n        /* \"#utility.yul\":7932:7936   */\n      0x24\n        /* \"#utility.yul\":7929:7930   */\n      0x00\n        /* \"#utility.yul\":7922:7937   */\n      revert\n        /* \"#utility.yul\":7949:8269   */\n    tag_40:\n        /* \"#utility.yul\":7993:7999   */\n      0x00\n        /* \"#utility.yul\":8030:8031   */\n      0x02\n        /* \"#utility.yul\":8024:8028   */\n      dup3\n        /* \"#utility.yul\":8020:8032   */\n      div\n        /* \"#utility.yul\":8010:8032   */\n      swap1\n      pop\n        /* \"#utility.yul\":8077:8078   */\n      0x01\n        /* \"#utility.yul\":8071:8075   */\n      dup3\n        /* \"#utility.yul\":8067:8079   */\n      and\n        /* \"#utility.yul\":8098:8116   */\n      dup1\n        /* \"#utility.yul\":8088:8169   */\n      tag_199\n      jumpi\n        /* \"#utility.yul\":8154:8158   */\n      0x7f\n        /* \"#utility.yul\":8146:8152   */\n      dup3\n        /* \"#utility.yul\":8142:8159   */\n      and\n        /* \"#utility.yul\":8132:8159   */\n      swap2\n      pop\n        /* \"#utility.yul\":8088:8169   */\n    tag_199:\n        /* \"#utility.yul\":8216:8218   */\n      0x20\n        /* \"#utility.yul\":8208:8214   */\n      dup3\n        /* \"#utility.yul\":8205:8219   */\n      lt\n        /* \"#utility.yul\":8185:8203   */\n      dup2\n        /* \"#utility.yul\":8182:8220   */\n      sub\n        /* \"#utility.yul\":8179:8263   */\n      tag_200\n      jumpi\n        /* \"#utility.yul\":8235:8253   */\n      tag_201\n      tag_85\n      jump\t// in\n    tag_201:\n        /* \"#utility.yul\":8179:8263   */\n    tag_200:\n        /* \"#utility.yul\":8000:8269   */\n      pop\n        /* \"#utility.yul\":7949:8269   */\n      swap2\n      swap1\n      pop\n      jump\t// out\n        /* \"#utility.yul\":8275:8416   */\n    tag_86:\n        /* \"#utility.yul\":8324:8328   */\n      0x00\n        /* \"#utility.yul\":8347:8350   */\n      dup2\n        /* \"#utility.yul\":8339:8350   */\n      swap1\n      pop\n        /* \"#utility.yul\":8370:8373   */\n      dup2\n        /* \"#utility.yul\":8367:8368   */\n      0x00\n        /* \"#utility.yul\":8360:8374   */\n      mstore\n        /* \"#utility.yul\":8404:8408   */\n      0x20\n        /* \"#utility.yul\":8401:8402   */\n      0x00\n        /* \"#utility.yul\":8391:8409   */\n      keccak256\n        /* \"#utility.yul\":8383:8409   */\n      swap1\n      pop\n        /* \"#utility.yul\":8275:8416   */\n      swap2\n      swap1\n      pop\n      jump\t// out\n        /* \"#utility.yul\":8422:8515   */\n    tag_87:\n        /* \"#utility.yul\":8459:8465   */\n      0x00\n        /* \"#utility.yul\":8506:8508   */\n      0x20\n        /* \"#utility.yul\":8501:8503   */\n      0x1f\n        /* \"#utility.yul\":8494:8499   */\n      dup4\n        /* \"#utility.yul\":8490:8504   */\n      add\n        /* \"#utility.yul\":8486:8509   */\n      div\n        /* \"#utility.yul\":8476:8509   */\n      swap1\n      pop\n        /* \"#utility.yul\":8422:8515   */\n      swap2\n      swap1\n      pop\n      jump\t// out\n        /* \"#utility.yul\":8521:8628   */\n    tag_88:\n        /* \"#utility.yul\":8565:8573   */\n      0x00\n        /* \"#utility.yul\":8615:8620   */\n      dup3\n        /* \"#utility.yul\":8609:8613   */\n      dup3\n        /* \"#utility.yul\":8605:8621   */\n      shl\n        /* \"#utility.yul\":8584:8621   */\n      swap1\n      pop\n        /* \"#utility.yul\":8521:8628   */\n      swap3\n      swap2\n      pop\n      pop\n      jump\t// out\n        /* \"#utility.yul\":8634:9027   */\n    tag_89:\n        /* \"#utility.yul\":8703:8709   */\n      0x00\n        /* \"#utility.yul\":8753:8754   */\n      0x08\n        /* \"#utility.yul\":8741:8751   */\n      dup4\n        /* \"#utility.yul\":8737:8755   */\n      mul\n        /* \"#utility.yul\":8776:8873   */\n      tag_206\n        /* \"#utility.yul\":8806:8872   */\n      0xffffffffffffffffffffffffffffffffffffffffffffffffffffffffffffffff\n        /* \"#utility.yul\":8795:8804   */\n      dup3\n        /* \"#utility.yul\":8776:8873   */\n      tag_88\n      jump\t// in\n    tag_206:\n        /* \"#utility.yul\":8894:8933   */\n      tag_207\n        /* \"#utility.yul\":8924:8932   */\n      dup7\n        /* \"#utility.yul\":8913:8922   */\n      dup4\n        /* \"#utility.yul\":8894:8933   */\n      tag_88\n      jump\t// in\n    tag_207:\n        /* \"#utility.yul\":8882:8933   */\n      swap6\n      pop\n        /* \"#utility.yul\":8966:8970   */\n      dup1\n        /* \"#utility.yul\":8962:8971   */\n      not\n        /* \"#utility.yul\":8955:8960   */\n      dup5\n        /* \"#utility.yul\":8951:8972   */\n      and\n        /* \"#utility.yul\":8942:8972   */\n      swap4\n      pop\n        /* \"#utility.yul\":9015:9019   */\n      dup1\n        /* \"#utility.yul\":9005:9013   */\n      dup7\n        /* \"#utility.yul\":9001:9020   */\n      and\n        /* \"#utility.yul\":8994:8999   */\n      dup5\n        /* \"#utility.yul\":8991:9021   */\n      or\n        /* \"#utility.yul\":8981:9021   */\n      swap3\n      pop\n        /* \"#utility.yul\":8710:9027   */\n      pop\n      pop\n        /* \"#utility.yul\":8634:9027   */\n      swap4\n      swap3\n      pop\n      pop\n      pop\n      jump\t// out\n        /* \"#utility.yul\":9033:9093   */\n    tag_90:\n        /* \"#utility.yul\":9061:9064   */\n      0x00\n        /* \"#utility.yul\":9082:9087   */\n      dup2\n        /* \"#utility.yul\":9075:9087   */\n      swap1\n      pop\n        /* \"#utility.yul\":9033:9093   */\n      swap2\n      swap1\n      pop\n      jump\t// out\n        /* \"#utility.yul\":9099:9241   */\n    tag_91:\n        /* \"#utility.yul\":9149:9158   */\n      0x00\n        /* \"#utility.yul\":9182:9235   */\n      tag_210\n        /* \"#utility.yul\":9200:9234   */\n      tag_211\n        /* \"#utility.yul\":9209:9233   */\n      tag_212\n        /* \"#utility.yul\":9227:9232   */\n      dup5\n        /* \"#utility.yul\":9209:9233   */\n      tag_59\n      jump\t// in\n    tag_212:\n        /* \"#utility.yul\":9200:9234   */\n      tag_90\n      jump\t// in\n    tag_211:\n        /* \"#utility.yul\":9182:9235   */\n      tag_59\n      jump\t// in\n    tag_210:\n        /* \"#utility.yul\":9169:9235   */\n      swap1\n      pop\n        /* \"#utility.yul\":9099:9241   */\n      swap2\n      swap1\n      pop\n      jump\t// out\n        /* \"#utility.yul\":9247:9322   */\n    tag_92:\n        /* \"#utility.yul\":9290:9293   */\n      0x00\n        /* \"#utility.yul\":9311:9316   */\n      dup2\n        /* \"#utility.yul\":9304:9316   */\n      swap1\n      pop\n        /* \"#utility.yul\":9247:9322   */\n      swap2\n      swap1\n      pop\n      jump\t// out\n        /* \"#utility.yul\":9328:9597   */\n    tag_93:\n        /* \"#utility.yul\":9438:9477   */\n      tag_215\n        /* \"#utility.yul\":9469:9476   */\n      dup4\n        /* \"#utility.yul\":9438:9477   */\n      tag_91\n      jump\t// in\n    tag_215:\n        /* \"#utility.yul\":9499:9590   */\n      tag_216\n        /* \"#utility.yul\":9548:9589   */\n      tag_217\n        /* \"#utility.yul\":9572:9588   */\n      dup3\n        /* \"#utility.yul\":9548:9589   */\n      tag_92\n      jump\t// in\n    tag_217:\n        /* \"#utility.yul\":9540:9546   */\n      dup5\n        /* \"#utility.yul\":9533:9537   */\n      dup5\n        /* \"#utility.yul\":9527:9538   */\n      sload\n        /* \"#utility.yul\":9499:9590   */\n      tag_89\n      jump\t// in\n    tag_216:\n        /* \"#utility.yul\":9493:9497   */\n      dup3\n        /* \"#utility.yul\":9486:9591   */\n      sstore\n        /* \"#utility.yul\":9404:9597   */\n      pop\n        /* \"#utility.yul\":9328:9597   */\n      pop\n      pop\n      pop\n      jump\t// out\n        /* \"#utility.yul\":9603:9676   */\n    tag_94:\n        /* \"#utility.yul\":9648:9651   */\n      0x00\n        /* \"#utility.yul\":9603:9676   */\n      swap1\n      jump\t// out\n        /* \"#utility.yul\":9682:9871   */\n    tag_95:\n        /* \"#utility.yul\":9759:9791   */\n      tag_220\n      tag_94\n      jump\t// in\n    tag_220:\n        /* \"#utility.yul\":9800:9865   */\n      tag_221\n        /* \"#utility.yul\":9858:9864   */\n      dup2\n        /* \"#utility.yul\":9850:9856   */\n      dup5\n        /* \"#utility.yul\":9844:9848   */\n      dup5\n        /* \"#utility.yul\":9800:9865   */\n      tag_93\n      jump\t// in\n    tag_221:\n        /* \"#utility.yul\":9735:9871   */\n      pop\n        /* \"#utility.yul\":9682:9871   */\n      pop\n      pop\n      jump\t// out\n        /* \"#utility.yul\":9877:10063   */\n    tag_96:\n        /* \"#utility.yul\":9937:10057   */\n    tag_223:\n        /* \"#utility.yul\":9954:9957   */\n      dup2\n        /* \"#utility.yul\":9947:9952   */\n      dup2\n        /* \"#utility.yul\":9944:9958   */\n      lt\n        /* \"#utility.yul\":9937:10057   */\n      iszero\n      tag_225\n      jumpi\n        /* \"#utility.yul\":10008:10047   */\n      tag_226\n        /* \"#utility.yul\":10045:10046   */\n      0x00\n        /* \"#utility.yul\":10038:10043   */\n      dup3\n        /* \"#utility.yul\":10008:10047   */\n      tag_95\n      jump\t// in\n    tag_226:\n        /* \"#utility.yul\":9981:9982   */\n      0x01\n        /* \"#utility.yul\":9974:9979   */\n      dup2\n        /* \"#utility.yul\":9970:9983   */\n      add\n        /* \"#utility.yul\":9961:9983   */\n      swap1\n      pop\n        /* \"#utility.yul\":9937:10057   */\n      jump(tag_223)\n    tag_225:\n        /* \"#utility.yul\":9877:10063   */\n      pop\n      pop\n      jump\t// out\n        /* \"#utility.yul\":10069:10612   */\n    tag_97:\n        /* \"#utility.yul\":10170:10172   */\n      0x1f\n        /* \"#utility.yul\":10165:10168   */\n      dup3\n        /* \"#utility.yul\":10162:10173   */\n      gt\n        /* \"#utility.yul\":10159:10605   */\n      iszero\n      tag_228\n      jumpi\n        /* \"#utility.yul\":10204:10242   */\n      tag_229\n        /* \"#utility.yul\":10236:10241   */\n      dup2\n        /* \"#utility.yul\":10204:10242   */\n      tag_86\n      jump\t// in\n    tag_229:\n        /* \"#utility.yul\":10288:10317   */\n      tag_230\n        /* \"#utility.yul\":10306:10316   */\n      dup5\n        /* \"#utility.yul\":10288:10317   */\n      tag_87\n      jump\t// in\n    tag_230:\n        /* \"#utility.yul\":10278:10286   */\n      dup2\n        /* \"#utility.yul\":10274:10318   */\n      add\n        /* \"#utility.yul\":10471:10473   */\n      0x20\n        /* \"#utility.yul\":10459:10469   */\n      dup6\n        /* \"#utility.yul\":10456:10474   */\n      lt\n        /* \"#utility.yul\":10453:10502   */\n      iszero\n      tag_231\n      jumpi\n        /* \"#utility.yul\":10492:10500   */\n      dup2\n        /* \"#utility.yul\":10477:10500   */\n      swap1\n      pop\n        /* \"#utility.yul\":10453:10502   */\n    tag_231:\n        /* \"#utility.yul\":10515:10595   */\n      tag_232\n        /* \"#utility.yul\":10571:10593   */\n      tag_233\n        /* \"#utility.yul\":10589:10592   */\n      dup6\n        /* \"#utility.yul\":10571:10593   */\n      tag_87\n      jump\t// in\n    tag_233:\n        /* \"#utility.yul\":10561:10569   */\n      dup4\n        /* \"#utility.yul\":10557:10594   */\n      add\n        /* \"#utility.yul\":10544:10555   */\n      dup3\n        /* \"#utility.yul\":10515:10595   */\n      tag_96\n      jump\t// in\n    tag_232:\n        /* \"#utility.yul\":10174:10605   */\n      pop\n      pop\n        /* \"#utility.yul\":10159:10605   */\n    tag_228:\n        /* \"#utility.yul\":10069:10612   */\n      pop\n      pop\n      pop\n      jump\t// out\n        /* \"#utility.yul\":10618:10735   */\n    tag_98:\n        /* \"#utility.yul\":10672:10680   */\n      0x00\n        /* \"#utility.yul\":10722:10727   */\n      dup3\n        /* \"#utility.yul\":10716:10720   */\n      dup3\n        /* \"#utility.yul\":10712:10728   */\n      shr\n        /* \"#utility.yul\":10691:10728   */\n      swap1\n      pop\n        /* \"#utility.yul\":10618:10735   */\n      swap3\n      swap2\n      pop\n      pop\n      jump\t// out\n        /* \"#utility.yul\":10741:10910   */\n    tag_99:\n        /* \"#utility.yul\":10785:10791   */\n      0x00\n        /* \"#utility.yul\":10818:10869   */\n      tag_236\n        /* \"#utility.yul\":10866:10867   */\n      0x00\n        /* \"#utility.yul\":10862:10868   */\n      not\n        /* \"#utility.yul\":10854:10859   */\n      dup5\n        /* \"#utility.yul\":10851:10852   */\n      0x08\n        /* \"#utility.yul\":10847:10860   */\n      mul\n        /* \"#utility.yul\":10818:10869   */\n      tag_98\n      jump\t// in\n    tag_236:\n        /* \"#utility.yul\":10814:10870   */\n      not\n        /* \"#utility.yul\":10899:10903   */\n      dup1\n        /* \"#utility.yul\":10893:10897   */\n      dup4\n        /* \"#utility.yul\":10889:10904   */\n      and\n        /* \"#utility.yul\":10879:10904   */\n      swap2\n      pop\n        /* \"#utility.yul\":10792:10910   */\n      pop\n        /* \"#utility.yul\":10741:10910   */\n      swap3\n      swap2\n      pop\n      pop\n      jump\t// out\n        /* \"#utility.yul\":10915:11210   */\n    tag_100:\n        /* \"#utility.yul\":10991:10995   */\n      0x00\n        /* \"#utility.yul\":11137:11166   */\n      tag_238\n        /* \"#utility.yul\":11162:11165   */\n      dup4\n        /* \"#utility.yul\":11156:11160   */\n      dup4\n        /* \"#utility.yul\":11137:11166   */\n      tag_99\n      jump\t// in\n    tag_238:\n        /* \"#utility.yul\":11129:11166   */\n      swap2\n      pop\n        /* \"#utility.yul\":11199:11202   */\n      dup3\n        /* \"#utility.yul\":11196:11197   */\n      0x02\n        /* \"#utility.yul\":11192:11203   */\n      mul\n        /* \"#utility.yul\":11186:11190   */\n      dup3\n        /* \"#utility.yul\":11183:11204   */\n      or\n        /* \"#utility.yul\":11175:11204   */\n      swap1\n      pop\n        /* \"#utility.yul\":10915:11210   */\n      swap3\n      swap2\n      pop\n      pop\n      jump\t// out\n        /* \"#utility.yul\":11215:12610   */\n    tag_36:\n        /* \"#utility.yul\":11332:11369   */\n      tag_240\n        /* \"#utility.yul\":11365:11368   */\n      dup3\n        /* \"#utility.yul\":11332:11369   */\n      tag_80\n      jump\t// in\n    tag_240:\n        /* \"#utility.yul\":11434:11452   */\n      0xffffffffffffffff\n        /* \"#utility.yul\":11426:11432   */\n      dup2\n        /* \"#utility.yul\":11423:11453   */\n      gt\n        /* \"#utility.yul\":11420:11476   */\n      iszero\n      tag_241\n      jumpi\n        /* \"#utility.yul\":11456:11474   */\n      tag_242\n      tag_69\n      jump\t// in\n    tag_242:\n        /* \"#utility.yul\":11420:11476   */\n    tag_241:\n        /* \"#utility.yul\":11500:11538   */\n      tag_243\n        /* \"#utility.yul\":11532:11536   */\n      dup3\n        /* \"#utility.yul\":11526:11537   */\n      sload\n        /* \"#utility.yul\":11500:11538   */\n      tag_40\n      jump\t// in\n    tag_243:\n        /* \"#utility.yul\":11585:11652   */\n      tag_244\n        /* \"#utility.yul\":11645:11651   */\n      dup3\n        /* \"#utility.yul\":11637:11643   */\n      dup3\n        /* \"#utility.yul\":11631:11635   */\n      dup6\n        /* \"#utility.yul\":11585:11652   */\n      tag_97\n      jump\t// in\n    tag_244:\n        /* \"#utility.yul\":11679:11680   */\n      0x00\n        /* \"#utility.yul\":11703:11707   */\n      0x20\n        /* \"#utility.yul\":11690:11707   */\n      swap1\n      pop\n        /* \"#utility.yul\":11735:11737   */\n      0x1f\n        /* \"#utility.yul\":11727:11733   */\n      dup4\n        /* \"#utility.yul\":11724:11738   */\n      gt\n        /* \"#utility.yul\":11752:11753   */\n      0x01\n        /* \"#utility.yul\":11747:12365   */\n      dup2\n      eq\n      tag_246\n      jumpi\n        /* \"#utility.yul\":12409:12410   */\n      0x00\n        /* \"#utility.yul\":12426:12432   */\n      dup5\n        /* \"#utility.yul\":12423:12500   */\n      iszero\n      tag_247\n      jumpi\n        /* \"#utility.yul\":12475:12484   */\n      dup3\n        /* \"#utility.yul\":12470:12473   */\n      dup8\n        /* \"#utility.yul\":12466:12485   */\n      add\n        /* \"#utility.yul\":12460:12486   */\n      mload\n        /* \"#utility.yul\":12451:12486   */\n      swap1\n      pop\n        /* \"#utility.yul\":12423:12500   */\n    tag_247:\n        /* \"#utility.yul\":12526:12593   */\n      tag_248\n        /* \"#utility.yul\":12586:12592   */\n      dup6\n        /* \"#utility.yul\":12579:12584   */\n      dup3\n        /* \"#utility.yul\":12526:12593   */\n      tag_100\n      jump\t// in\n    tag_248:\n        /* \"#utility.yul\":12520:12524   */\n      dup7\n        /* \"#utility.yul\":12513:12594   */\n      sstore\n        /* \"#utility.yul\":12382:12604   */\n      pop\n        /* \"#utility.yul\":11717:12604   */\n      jump(tag_245)\n        /* \"#utility.yul\":11747:12365   */\n    tag_246:\n        /* \"#utility.yul\":11799:11803   */\n      0x1f\n        /* \"#utility.yul\":11795:11804   */\n      not\n        /* \"#utility.yul\":11787:11793   */\n      dup5\n        /* \"#utility.yul\":11783:11805   */\n      and\n        /* \"#utility.yul\":11833:11870   */\n      tag_249\n        /* \"#utility.yul\":11865:11869   */\n      dup7\n        /* \"#utility.yul\":11833:11870   */\n      tag_86\n      jump\t// in\n    tag_249:\n        /* \"#utility.yul\":11892:11893   */\n      0x00\n        /* \"#utility.yul\":11906:12114   */\n    tag_250:\n        /* \"#utility.yul\":11920:11927   */\n      dup3\n        /* \"#utility.yul\":11917:11918   */\n      dup2\n        /* \"#utility.yul\":11914:11928   */\n      lt\n        /* \"#utility.yul\":11906:12114   */\n      iszero\n      tag_252\n      jumpi\n        /* \"#utility.yul\":11999:12008   */\n      dup5\n        /* \"#utility.yul\":11994:11997   */\n      dup10\n        /* \"#utility.yul\":11990:12009   */\n      add\n        /* \"#utility.yul\":11984:12010   */\n      mload\n        /* \"#utility.yul\":11976:11982   */\n      dup3\n        /* \"#utility.yul\":11969:12011   */\n      sstore\n        /* \"#utility.yul\":12050:12051   */\n      0x01\n        /* \"#utility.yul\":12042:12048   */\n      dup3\n        /* \"#utility.yul\":12038:12052   */\n      add\n        /* \"#utility.yul\":12028:12052   */\n      swap2\n      pop\n        /* \"#utility.yul\":12097:12099   */\n      0x20\n        /* \"#utility.yul\":12086:12095   */\n      dup6\n        /* \"#utility.yul\":12082:12100   */\n      add\n        /* \"#utility.yul\":12069:12100   */\n      swap5\n      pop\n        /* \"#utility.yul\":11943:11947   */\n      0x20\n        /* \"#utility.yul\":11940:11941   */\n      dup2\n        /* \"#utility.yul\":11936:11948   */\n      add\n        /* \"#utility.yul\":11931:11948   */\n      swap1\n      pop\n        /* \"#utility.yul\":11906:12114   */\n      jump(tag_250)\n    tag_252:\n        /* \"#utility.yul\":12142:12148   */\n      dup7\n        /* \"#utility.yul\":12133:12140   */\n      dup4\n        /* \"#utility.yul\":12130:12149   */\n      lt\n        /* \"#utility.yul\":12127:12306   */\n      iszero\n      tag_253\n      jumpi\n        /* \"#utility.yul\":12200:12209   */\n      dup5\n        /* \"#utility.yul\":12195:12198   */\n      dup10\n        /* \"#utility.yul\":12191:12210   */\n      add\n        /* \"#utility.yul\":12185:12211   */\n      mload\n        /* \"#utility.yul\":12243:12291   */\n      tag_254\n        /* \"#utility.yul\":12285:12289   */\n      0x1f\n        /* \"#utility.yul\":12277:12283   */\n      dup10\n        /* \"#utility.yul\":12273:12290   */\n      and\n        /* \"#utility.yul\":12262:12271   */\n      dup3\n        /* \"#utility.yul\":12243:12291   */\n      tag_99\n      jump\t// in\n    tag_254:\n        /* \"#utility.yul\":12235:12241   */\n      dup4\n        /* \"#utility.yul\":12228:12292   */\n      sstore\n        /* \"#utility.yul\":12150:12306   */\n      pop\n        /* \"#utility.yul\":12127:12306   */\n    tag_253:\n        /* \"#utility.yul\":12352:12353   */\n      0x01\n        /* \"#utility.yul\":12348:12349   */\n      0x02\n        /* \"#utility.yul\":12340:12346   */\n      dup9\n        /* \"#utility.yul\":12336:12350   */\n      mul\n        /* \"#utility.yul\":12332:12354   */\n      add\n        /* \"#utility.yul\":12326:12330   */\n      dup9\n        /* \"#utility.yul\":12319:12355   */\n      sstore\n        /* \"#utility.yul\":11754:12365   */\n      pop\n      pop\n      pop\n        /* \"#utility.yul\":11717:12604   */\n    tag_245:\n      pop\n        /* \"#utility.yul\":11307:12610   */\n      pop\n      pop\n      pop\n        /* \"#utility.yul\":11215:12610   */\n      pop\n      pop\n      jump\t// out\n        /* \"#utility.yul\":12616:12929   */\n    tag_38:\n        /* \"#utility.yul\":12729:12733   */\n      0x00\n        /* \"#utility.yul\":12767:12769   */\n      0x20\n        /* \"#utility.yul\":12756:12765   */\n      dup3\n        /* \"#utility.yul\":12752:12770   */\n      add\n        /* \"#utility.yul\":12744:12770   */\n      swap1\n      pop\n        /* \"#utility.yul\":12816:12825   */\n      dup2\n        /* \"#utility.yul\":12810:12814   */\n      dup2\n        /* \"#utility.yul\":12806:12826   */\n      sub\n        /* \"#utility.yul\":12802:12803   */\n      0x00\n        /* \"#utility.yul\":12791:12800   */\n      dup4\n        /* \"#utility.yul\":12787:12804   */\n      add\n        /* \"#utility.yul\":12780:12827   */\n      mstore\n        /* \"#utility.yul\":12844:12922   */\n      tag_256\n        /* \"#utility.yul\":12917:12921   */\n      dup2\n        /* \"#utility.yul\":12908:12914   */\n      dup5\n        /* \"#utility.yul\":12844:12922   */\n      tag_83\n      jump\t// in\n    tag_256:\n        /* \"#utility.yul\":12836:12922   */\n      swap1\n      pop\n        /* \"#utility.yul\":12616:12929   */\n      swap3\n      swap2\n      pop\n      pop\n      jump\t// out\n\n    auxdata: 0xa264697066735822122038c51bbdc1f16814353c6863c5ce34300c5506047bf0ea8f750e557de3c8cd8964736f6c63430008160033\n}\n",
				"bytecode": {
					"linkReferences": {},
					"object": "608060405234801561000f575f80fd5b50610aec8061001d5f395ff3fe608060405234801561000f575f80fd5b5060043610610055575f3560e01c806329092d0e146100595780632e64cec1146100755780636057361d14610093578063d7d0fe2d146100af578063ec1653ad146100cb575b5f80fd5b610073600480360381019061006e9190610424565b6100fd565b005b61007d6101aa565b60405161008a9190610467565b60405180910390f35b6100ad60048036038101906100a891906104aa565b6101b3565b005b6100c960048036038101906100c49190610679565b6101bd565b005b6100e560048036038101906100e09190610424565b6102aa565b6040516100f493929190610791565b60405180910390f35b5f808273ffffffffffffffffffffffffffffffffffffffff1673ffffffffffffffffffffffffffffffffffffffff1681526020019081526020015f205f8082015f9055600182015f61014f9190610361565b600282015f6101000a81549060ff021916905550503373ffffffffffffffffffffffffffffffffffffffff167f19c1bc4527f80e0f3da4539e6e0799f0df322ec1cc5e8b7ff478fb510e0ea57960405160405180910390a250565b5f600154905090565b8060018190555050565b60405180606001604052808481526020018381526020018215158152505f808673ffffffffffffffffffffffffffffffffffffffff1673ffffffffffffffffffffffffffffffffffffffff1681526020019081526020015f205f820151815f0155602082015181600101908161023391906109c7565b506040820151816002015f6101000a81548160ff0219169083151502179055509050503373ffffffffffffffffffffffffffffffffffffffff167f03a86756a20f3eee120fcfc99a0590f698304ba0fe5328ab87e33afd7e4ef4968360405161029c9190610a96565b60405180910390a250505050565b5f602052805f5260405f205f91509050805f0154908060010180546102ce906107fa565b80601f01602080910402602001604051908101604052809291908181526020018280546102fa906107fa565b80156103455780601f1061031c57610100808354040283529160200191610345565b820191905f5260205f20905b81548152906001019060200180831161032857829003601f168201915b505050505090806002015f9054906101000a900460ff16905083565b50805461036d906107fa565b5f825580601f1061037e575061039b565b601f0160209004905f5260205f209081019061039a919061039e565b5b50565b5b808211156103b5575f815f90555060010161039f565b5090565b5f604051905090565b5f80fd5b5f80fd5b5f73ffffffffffffffffffffffffffffffffffffffff82169050919050565b5f6103f3826103ca565b9050919050565b610403816103e9565b811461040d575f80fd5b50565b5f8135905061041e816103fa565b92915050565b5f60208284031215610439576104386103c2565b5b5f61044684828501610410565b91505092915050565b5f819050919050565b6104618161044f565b82525050565b5f60208201905061047a5f830184610458565b92915050565b6104898161044f565b8114610493575f80fd5b50565b5f813590506104a481610480565b92915050565b5f602082840312156104bf576104be6103c2565b5b5f6104cc84828501610496565b91505092915050565b5f819050919050565b6104e7816104d5565b81146104f1575f80fd5b50565b5f81359050610502816104de565b92915050565b5f80fd5b5f80fd5b5f601f19601f8301169050919050565b7f4e487b71000000000000000000000000000000000000000000000000000000005f52604160045260245ffd5b61055682610510565b810181811067ffffffffffffffff8211171561057557610574610520565b5b80604052505050565b5f6105876103b9565b9050610593828261054d565b919050565b5f67ffffffffffffffff8211156105b2576105b1610520565b5b6105bb82610510565b9050602081019050919050565b828183375f83830152505050565b5f6105e86105e384610598565b61057e565b9050828152602081018484840111156106045761060361050c565b5b61060f8482856105c8565b509392505050565b5f82601f83011261062b5761062a610508565b5b813561063b8482602086016105d6565b91505092915050565b5f8115159050919050565b61065881610644565b8114610662575f80fd5b50565b5f813590506106738161064f565b92915050565b5f805f8060808587031215610691576106906103c2565b5b5f61069e87828801610410565b94505060206106af878288016104f4565b935050604085013567ffffffffffffffff8111156106d0576106cf6103c6565b5b6106dc87828801610617565b92505060606106ed87828801610665565b91505092959194509250565b610702816104d5565b82525050565b5f81519050919050565b5f82825260208201905092915050565b5f5b8381101561073f578082015181840152602081019050610724565b5f8484015250505050565b5f61075482610708565b61075e8185610712565b935061076e818560208601610722565b61077781610510565b840191505092915050565b61078b81610644565b82525050565b5f6060820190506107a45f8301866106f9565b81810360208301526107b6818561074a565b90506107c56040830184610782565b949350505050565b7f4e487b71000000000000000000000000000000000000000000000000000000005f52602260045260245ffd5b5f600282049050600182168061081157607f821691505b602082108103610824576108236107cd565b5b50919050565b5f819050815f5260205f209050919050565b5f6020601f8301049050919050565b5f82821b905092915050565b5f600883026108867fffffffffffffffffffffffffffffffffffffffffffffffffffffffffffffffff8261084b565b610890868361084b565b95508019841693508086168417925050509392505050565b5f819050919050565b5f6108cb6108c66108c18461044f565b6108a8565b61044f565b9050919050565b5f819050919050565b6108e4836108b1565b6108f86108f0826108d2565b848454610857565b825550505050565b5f90565b61090c610900565b6109178184846108db565b505050565b5b8181101561093a5761092f5f82610904565b60018101905061091d565b5050565b601f82111561097f576109508161082a565b6109598461083c565b81016020851015610968578190505b61097c6109748561083c565b83018261091c565b50505b505050565b5f82821c905092915050565b5f61099f5f1984600802610984565b1980831691505092915050565b5f6109b78383610990565b9150826002028217905092915050565b6109d082610708565b67ffffffffffffffff8111156109e9576109e8610520565b5b6109f382546107fa565b6109fe82828561093e565b5f60209050601f831160018114610a2f575f8415610a1d578287015190505b610a2785826109ac565b865550610a8e565b601f198416610a3d8661082a565b5f5b82811015610a6457848901518255600182019150602085019450602081019050610a3f565b86831015610a815784890151610a7d601f891682610990565b8355505b6001600288020188555050505b505050505050565b5f6020820190508181035f830152610aae818461074a565b90509291505056fea264697066735822122038c51bbdc1f16814353c6863c5ce34300c5506047bf0ea8f750e557de3c8cd8964736f6c63430008160033",
					"opcodes": "PUSH1 0x80 PUSH1 0x40 MSTORE CALLVALUE DUP1 ISZERO PUSH2 0xF JUMPI PUSH0 DUP1 REVERT JUMPDEST POP PUSH2 0xAEC DUP1 PUSH2 0x1D PUSH0 CODECOPY PUSH0 RETURN INVALID PUSH1 0x80 PUSH1 0x40 MSTORE CALLVALUE DUP1 ISZERO PUSH2 0xF JUMPI PUSH0 DUP1 REVERT JUMPDEST POP PUSH1 0x4 CALLDATASIZE LT PUSH2 0x55 JUMPI PUSH0 CALLDATALOAD PUSH1 0xE0 SHR DUP1 PUSH4 0x29092D0E EQ PUSH2 0x59 JUMPI DUP1 PUSH4 0x2E64CEC1 EQ PUSH2 0x75 JUMPI DUP1 PUSH4 0x6057361D EQ PUSH2 0x93 JUMPI DUP1 PUSH4 0xD7D0FE2D EQ PUSH2 0xAF JUMPI DUP1 PUSH4 0xEC1653AD EQ PUSH2 0xCB JUMPI JUMPDEST PUSH0 DUP1 REVERT JUMPDEST PUSH2 0x73 PUSH1 0x4 DUP1 CALLDATASIZE SUB DUP2 ADD SWAP1 PUSH2 0x6E SWAP2 SWAP1 PUSH2 0x424 JUMP JUMPDEST PUSH2 0xFD JUMP JUMPDEST STOP JUMPDEST PUSH2 0x7D PUSH2 0x1AA JUMP JUMPDEST PUSH1 0x40 MLOAD PUSH2 0x8A SWAP2 SWAP1 PUSH2 0x467 JUMP JUMPDEST PUSH1 0x40 MLOAD DUP1 SWAP2 SUB SWAP1 RETURN JUMPDEST PUSH2 0xAD PUSH1 0x4 DUP1 CALLDATASIZE SUB DUP2 ADD SWAP1 PUSH2 0xA8 SWAP2 SWAP1 PUSH2 0x4AA JUMP JUMPDEST PUSH2 0x1B3 JUMP JUMPDEST STOP JUMPDEST PUSH2 0xC9 PUSH1 0x4 DUP1 CALLDATASIZE SUB DUP2 ADD SWAP1 PUSH2 0xC4 SWAP2 SWAP1 PUSH2 0x679 JUMP JUMPDEST PUSH2 0x1BD JUMP JUMPDEST STOP JUMPDEST PUSH2 0xE5 PUSH1 0x4 DUP1 CALLDATASIZE SUB DUP2 ADD SWAP1 PUSH2 0xE0 SWAP2 SWAP1 PUSH2 0x424 JUMP JUMPDEST PUSH2 0x2AA JUMP JUMPDEST PUSH1 0x40 MLOAD PUSH2 0xF4 SWAP4 SWAP3 SWAP2 SWAP1 PUSH2 0x791 JUMP JUMPDEST PUSH1 0x40 MLOAD DUP1 SWAP2 SUB SWAP1 RETURN JUMPDEST PUSH0 DUP1 DUP3 PUSH20 0xFFFFFFFFFFFFFFFFFFFFFFFFFFFFFFFFFFFFFFFF AND PUSH20 0xFFFFFFFFFFFFFFFFFFFFFFFFFFFFFFFFFFFFFFFF AND DUP2 MSTORE PUSH1 0x20 ADD SWAP1 DUP2 MSTORE PUSH1 0x20 ADD PUSH0 KECCAK256 PUSH0 DUP1 DUP3 ADD PUSH0 SWAP1 SSTORE PUSH1 0x1 DUP3 ADD PUSH0 PUSH2 0x14F SWAP2 SWAP1 PUSH2 0x361 JUMP JUMPDEST PUSH1 0x2 DUP3 ADD PUSH0 PUSH2 0x100 EXP DUP2 SLOAD SWAP1 PUSH1 0xFF MUL NOT AND SWAP1 SSTORE POP POP CALLER PUSH20 0xFFFFFFFFFFFFFFFFFFFFFFFFFFFFFFFFFFFFFFFF AND PUSH32 0x19C1BC4527F80E0F3DA4539E6E0799F0DF322EC1CC5E8B7FF478FB510E0EA579 PUSH1 0x40 MLOAD PUSH1 0x40 MLOAD DUP1 SWAP2 SUB SWAP1 LOG2 POP JUMP JUMPDEST PUSH0 PUSH1 0x1 SLOAD SWAP1 POP SWAP1 JUMP JUMPDEST DUP1 PUSH1 0x1 DUP2 SWAP1 SSTORE POP POP JUMP JUMPDEST PUSH1 0x40 MLOAD DUP1 PUSH1 0x60 ADD PUSH1 0x40 MSTORE DUP1 DUP5 DUP2 MSTORE PUSH1 0x20 ADD DUP4 DUP2 MSTORE PUSH1 0x20 ADD DUP3 ISZERO ISZERO DUP2 MSTORE POP PUSH0 DUP1 DUP7 PUSH20 0xFFFFFFFFFFFFFFFFFFFFFFFFFFFFFFFFFFFFFFFF AND PUSH20 0xFFFFFFFFFFFFFFFFFFFFFFFFFFFFFFFFFFFFFFFF AND DUP2 MSTORE PUSH1 0x20 ADD SWAP1 DUP2 MSTORE PUSH1 0x20 ADD PUSH0 KECCAK256 PUSH0 DUP3 ADD MLOAD DUP2 PUSH0 ADD SSTORE PUSH1 0x20 DUP3 ADD MLOAD DUP2 PUSH1 0x1 ADD SWAP1 DUP2 PUSH2 0x233 SWAP2 SWAP1 PUSH2 0x9C7 JUMP JUMPDEST POP PUSH1 0x40 DUP3 ADD MLOAD DUP2 PUSH1 0x2 ADD PUSH0 PUSH2 0x100 EXP DUP2 SLOAD DUP2 PUSH1 0xFF MUL NOT AND SWAP1 DUP4 ISZERO ISZERO MUL OR SWAP1 SSTORE POP SWAP1 POP POP CALLER PUSH20 0xFFFFFFFFFFFFFFFFFFFFFFFFFFFFFFFFFFFFFFFF AND PUSH32 0x3A86756A20F3EEE120FCFC99A0590F698304BA0FE5328AB87E33AFD7E4EF496 DUP4 PUSH1 0x40 MLOAD PUSH2 0x29C SWAP2 SWAP1 PUSH2 0xA96 JUMP JUMPDEST PUSH1 0x40 MLOAD DUP1 SWAP2 SUB SWAP1 LOG2 POP POP POP POP JUMP JUMPDEST PUSH0 PUSH1 0x20 MSTORE DUP1 PUSH0 MSTORE PUSH1 0x40 PUSH0 KECCAK256 PUSH0 SWAP2 POP SWAP1 POP DUP1 PUSH0 ADD SLOAD SWAP1 DUP1 PUSH1 0x1 ADD DUP1 SLOAD PUSH2 0x2CE SWAP1 PUSH2 0x7FA JUMP JUMPDEST DUP1 PUSH1 0x1F ADD PUSH1 0x20 DUP1 SWAP2 DIV MUL PUSH1 0x20 ADD PUSH1 0x40 MLOAD SWAP1 DUP2 ADD PUSH1 0x40 MSTORE DUP1 SWAP3 SWAP2 SWAP1 DUP2 DUP2 MSTORE PUSH1 0x20 ADD DUP3 DUP1 SLOAD PUSH2 0x2FA SWAP1 PUSH2 0x7FA JUMP JUMPDEST DUP1 ISZERO PUSH2 0x345 JUMPI DUP1 PUSH1 0x1F LT PUSH2 0x31C JUMPI PUSH2 0x100 DUP1 DUP4 SLOAD DIV MUL DUP4 MSTORE SWAP2 PUSH1 0x20 ADD SWAP2 PUSH2 0x345 JUMP JUMPDEST DUP3 ADD SWAP2 SWAP1 PUSH0 MSTORE PUSH1 0x20 PUSH0 KECCAK256 SWAP1 JUMPDEST DUP2 SLOAD DUP2 MSTORE SWAP1 PUSH1 0x1 ADD SWAP1 PUSH1 0x20 ADD DUP1 DUP4 GT PUSH2 0x328 JUMPI DUP3 SWAP1 SUB PUSH1 0x1F AND DUP3 ADD SWAP2 JUMPDEST POP POP POP POP POP SWAP1 DUP1 PUSH1 0x2 ADD PUSH0 SWAP1 SLOAD SWAP1 PUSH2 0x100 EXP SWAP1 DIV PUSH1 0xFF AND SWAP1 POP DUP4 JUMP JUMPDEST POP DUP1 SLOAD PUSH2 0x36D SWAP1 PUSH2 0x7FA JUMP JUMPDEST PUSH0 DUP3 SSTORE DUP1 PUSH1 0x1F LT PUSH2 0x37E JUMPI POP PUSH2 0x39B JUMP JUMPDEST PUSH1 0x1F ADD PUSH1 0x20 SWAP1 DIV SWAP1 PUSH0 MSTORE PUSH1 0x20 PUSH0 KECCAK256 SWAP1 DUP2 ADD SWAP1 PUSH2 0x39A SWAP2 SWAP1 PUSH2 0x39E JUMP JUMPDEST JUMPDEST POP JUMP JUMPDEST JUMPDEST DUP1 DUP3 GT ISZERO PUSH2 0x3B5 JUMPI PUSH0 DUP2 PUSH0 SWAP1 SSTORE POP PUSH1 0x1 ADD PUSH2 0x39F JUMP JUMPDEST POP SWAP1 JUMP JUMPDEST PUSH0 PUSH1 0x40 MLOAD SWAP1 POP SWAP1 JUMP JUMPDEST PUSH0 DUP1 REVERT JUMPDEST PUSH0 DUP1 REVERT JUMPDEST PUSH0 PUSH20 0xFFFFFFFFFFFFFFFFFFFFFFFFFFFFFFFFFFFFFFFF DUP3 AND SWAP1 POP SWAP2 SWAP1 POP JUMP JUMPDEST PUSH0 PUSH2 0x3F3 DUP3 PUSH2 0x3CA JUMP JUMPDEST SWAP1 POP SWAP2 SWAP1 POP JUMP JUMPDEST PUSH2 0x403 DUP2 PUSH2 0x3E9 JUMP JUMPDEST DUP2 EQ PUSH2 0x40D JUMPI PUSH0 DUP1 REVERT JUMPDEST POP JUMP JUMPDEST PUSH0 DUP2 CALLDATALOAD SWAP1 POP PUSH2 0x41E DUP2 PUSH2 0x3FA JUMP JUMPDEST SWAP3 SWAP2 POP POP JUMP JUMPDEST PUSH0 PUSH1 0x20 DUP3 DUP5 SUB SLT ISZERO PUSH2 0x439 JUMPI PUSH2 0x438 PUSH2 0x3C2 JUMP JUMPDEST JUMPDEST PUSH0 PUSH2 0x446 DUP5 DUP3 DUP6 ADD PUSH2 0x410 JUMP JUMPDEST SWAP2 POP POP SWAP3 SWAP2 POP POP JUMP JUMPDEST PUSH0 DUP2 SWAP1 POP SWAP2 SWAP1 POP JUMP JUMPDEST PUSH2 0x461 DUP2 PUSH2 0x44F JUMP JUMPDEST DUP3 MSTORE POP POP JUMP JUMPDEST PUSH0 PUSH1 0x20 DUP3 ADD SWAP1 POP PUSH2 0x47A PUSH0 DUP4 ADD DUP5 PUSH2 0x458 JUMP JUMPDEST SWAP3 SWAP2 POP POP JUMP JUMPDEST PUSH2 0x489 DUP2 PUSH2 0x44F JUMP JUMPDEST DUP2 EQ PUSH2 0x493 JUMPI PUSH0 DUP1 REVERT JUMPDEST POP JUMP JUMPDEST PUSH0 DUP2 CALLDATALOAD SWAP1 POP PUSH2 0x4A4 DUP2 PUSH2 0x480 JUMP JUMPDEST SWAP3 SWAP2 POP POP JUMP JUMPDEST PUSH0 PUSH1 0x20 DUP3 DUP5 SUB SLT ISZERO PUSH2 0x4BF JUMPI PUSH2 0x4BE PUSH2 0x3C2 JUMP JUMPDEST JUMPDEST PUSH0 PUSH2 0x4CC DUP5 DUP3 DUP6 ADD PUSH2 0x496 JUMP JUMPDEST SWAP2 POP POP SWAP3 SWAP2 POP POP JUMP JUMPDEST PUSH0 DUP2 SWAP1 POP SWAP2 SWAP1 POP JUMP JUMPDEST PUSH2 0x4E7 DUP2 PUSH2 0x4D5 JUMP JUMPDEST DUP2 EQ PUSH2 0x4F1 JUMPI PUSH0 DUP1 REVERT JUMPDEST POP JUMP JUMPDEST PUSH0 DUP2 CALLDATALOAD SWAP1 POP PUSH2 0x502 DUP2 PUSH2 0x4DE JUMP JUMPDEST SWAP3 SWAP2 POP POP JUMP JUMPDEST PUSH0 DUP1 REVERT JUMPDEST PUSH0 DUP1 REVERT JUMPDEST PUSH0 PUSH1 0x1F NOT PUSH1 0x1F DUP4 ADD AND SWAP1 POP SWAP2 SWAP1 POP JUMP JUMPDEST PUSH32 0x4E487B7100000000000000000000000000000000000000000000000000000000 PUSH0 MSTORE PUSH1 0x41 PUSH1 0x4 MSTORE PUSH1 0x24 PUSH0 REVERT JUMPDEST PUSH2 0x556 DUP3 PUSH2 0x510 JUMP JUMPDEST DUP2 ADD DUP2 DUP2 LT PUSH8 0xFFFFFFFFFFFFFFFF DUP3 GT OR ISZERO PUSH2 0x575 JUMPI PUSH2 0x574 PUSH2 0x520 JUMP JUMPDEST JUMPDEST DUP1 PUSH1 0x40 MSTORE POP POP POP JUMP JUMPDEST PUSH0 PUSH2 0x587 PUSH2 0x3B9 JUMP JUMPDEST SWAP1 POP PUSH2 0x593 DUP3 DUP3 PUSH2 0x54D JUMP JUMPDEST SWAP2 SWAP1 POP JUMP JUMPDEST PUSH0 PUSH8 0xFFFFFFFFFFFFFFFF DUP3 GT ISZERO PUSH2 0x5B2 JUMPI PUSH2 0x5B1 PUSH2 0x520 JUMP JUMPDEST JUMPDEST PUSH2 0x5BB DUP3 PUSH2 0x510 JUMP JUMPDEST SWAP1 POP PUSH1 0x20 DUP2 ADD SWAP1 POP SWAP2 SWAP1 POP JUMP JUMPDEST DUP3 DUP2 DUP4 CALLDATACOPY PUSH0 DUP4 DUP4 ADD MSTORE POP POP POP JUMP JUMPDEST PUSH0 PUSH2 0x5E8 PUSH2 0x5E3 DUP5 PUSH2 0x598 JUMP JUMPDEST PUSH2 0x57E JUMP JUMPDEST SWAP1 POP DUP3 DUP2 MSTORE PUSH1 0x20 DUP2 ADD DUP5 DUP5 DUP5 ADD GT ISZERO PUSH2 0x604 JUMPI PUSH2 0x603 PUSH2 0x50C JUMP JUMPDEST JUMPDEST PUSH2 0x60F DUP5 DUP3 DUP6 PUSH2 0x5C8 JUMP JUMPDEST POP SWAP4 SWAP3 POP POP POP JUMP JUMPDEST PUSH0 DUP3 PUSH1 0x1F DUP4 ADD SLT PUSH2 0x62B JUMPI PUSH2 0x62A PUSH2 0x508 JUMP JUMPDEST JUMPDEST DUP2 CALLDATALOAD PUSH2 0x63B DUP5 DUP3 PUSH1 0x20 DUP7 ADD PUSH2 0x5D6 JUMP JUMPDEST SWAP2 POP POP SWAP3 SWAP2 POP POP JUMP JUMPDEST PUSH0 DUP2 ISZERO ISZERO SWAP1 POP SWAP2 SWAP1 POP JUMP JUMPDEST PUSH2 0x658 DUP2 PUSH2 0x644 JUMP JUMPDEST DUP2 EQ PUSH2 0x662 JUMPI PUSH0 DUP1 REVERT JUMPDEST POP JUMP JUMPDEST PUSH0 DUP2 CALLDATALOAD SWAP1 POP PUSH2 0x673 DUP2 PUSH2 0x64F JUMP JUMPDEST SWAP3 SWAP2 POP POP JUMP JUMPDEST PUSH0 DUP1 PUSH0 DUP1 PUSH1 0x80 DUP6 DUP8 SUB SLT ISZERO PUSH2 0x691 JUMPI PUSH2 0x690 PUSH2 0x3C2 JUMP JUMPDEST JUMPDEST PUSH0 PUSH2 0x69E DUP8 DUP3 DUP9 ADD PUSH2 0x410 JUMP JUMPDEST SWAP5 POP POP PUSH1 0x20 PUSH2 0x6AF DUP8 DUP3 DUP9 ADD PUSH2 0x4F4 JUMP JUMPDEST SWAP4 POP POP PUSH1 0x40 DUP6 ADD CALLDATALOAD PUSH8 0xFFFFFFFFFFFFFFFF DUP2 GT ISZERO PUSH2 0x6D0 JUMPI PUSH2 0x6CF PUSH2 0x3C6 JUMP JUMPDEST JUMPDEST PUSH2 0x6DC DUP8 DUP3 DUP9 ADD PUSH2 0x617 JUMP JUMPDEST SWAP3 POP POP PUSH1 0x60 PUSH2 0x6ED DUP8 DUP3 DUP9 ADD PUSH2 0x665 JUMP JUMPDEST SWAP2 POP POP SWAP3 SWAP6 SWAP2 SWAP5 POP SWAP3 POP JUMP JUMPDEST PUSH2 0x702 DUP2 PUSH2 0x4D5 JUMP JUMPDEST DUP3 MSTORE POP POP JUMP JUMPDEST PUSH0 DUP2 MLOAD SWAP1 POP SWAP2 SWAP1 POP JUMP JUMPDEST PUSH0 DUP3 DUP3 MSTORE PUSH1 0x20 DUP3 ADD SWAP1 POP SWAP3 SWAP2 POP POP JUMP JUMPDEST PUSH0 JUMPDEST DUP4 DUP2 LT ISZERO PUSH2 0x73F JUMPI DUP1 DUP3 ADD MLOAD DUP2 DUP5 ADD MSTORE PUSH1 0x20 DUP2 ADD SWAP1 POP PUSH2 0x724 JUMP JUMPDEST PUSH0 DUP5 DUP5 ADD MSTORE POP POP POP POP JUMP JUMPDEST PUSH0 PUSH2 0x754 DUP3 PUSH2 0x708 JUMP JUMPDEST PUSH2 0x75E DUP2 DUP6 PUSH2 0x712 JUMP JUMPDEST SWAP4 POP PUSH2 0x76E DUP2 DUP6 PUSH1 0x20 DUP7 ADD PUSH2 0x722 JUMP JUMPDEST PUSH2 0x777 DUP2 PUSH2 0x510 JUMP JUMPDEST DUP5 ADD SWAP2 POP POP SWAP3 SWAP2 POP POP JUMP JUMPDEST PUSH2 0x78B DUP2 PUSH2 0x644 JUMP JUMPDEST DUP3 MSTORE POP POP JUMP JUMPDEST PUSH0 PUSH1 0x60 DUP3 ADD SWAP1 POP PUSH2 0x7A4 PUSH0 DUP4 ADD DUP7 PUSH2 0x6F9 JUMP JUMPDEST DUP2 DUP2 SUB PUSH1 0x20 DUP4 ADD MSTORE PUSH2 0x7B6 DUP2 DUP6 PUSH2 0x74A JUMP JUMPDEST SWAP1 POP PUSH2 0x7C5 PUSH1 0x40 DUP4 ADD DUP5 PUSH2 0x782 JUMP JUMPDEST SWAP5 SWAP4 POP POP POP POP JUMP JUMPDEST PUSH32 0x4E487B7100000000000000000000000000000000000000000000000000000000 PUSH0 MSTORE PUSH1 0x22 PUSH1 0x4 MSTORE PUSH1 0x24 PUSH0 REVERT JUMPDEST PUSH0 PUSH1 0x2 DUP3 DIV SWAP1 POP PUSH1 0x1 DUP3 AND DUP1 PUSH2 0x811 JUMPI PUSH1 0x7F DUP3 AND SWAP2 POP JUMPDEST PUSH1 0x20 DUP3 LT DUP2 SUB PUSH2 0x824 JUMPI PUSH2 0x823 PUSH2 0x7CD JUMP JUMPDEST JUMPDEST POP SWAP2 SWAP1 POP JUMP JUMPDEST PUSH0 DUP2 SWAP1 POP DUP2 PUSH0 MSTORE PUSH1 0x20 PUSH0 KECCAK256 SWAP1 POP SWAP2 SWAP1 POP JUMP JUMPDEST PUSH0 PUSH1 0x20 PUSH1 0x1F DUP4 ADD DIV SWAP1 POP SWAP2 SWAP1 POP JUMP JUMPDEST PUSH0 DUP3 DUP3 SHL SWAP1 POP SWAP3 SWAP2 POP POP JUMP JUMPDEST PUSH0 PUSH1 0x8 DUP4 MUL PUSH2 0x886 PUSH32 0xFFFFFFFFFFFFFFFFFFFFFFFFFFFFFFFFFFFFFFFFFFFFFFFFFFFFFFFFFFFFFFFF DUP3 PUSH2 0x84B JUMP JUMPDEST PUSH2 0x890 DUP7 DUP4 PUSH2 0x84B JUMP JUMPDEST SWAP6 POP DUP1 NOT DUP5 AND SWAP4 POP DUP1 DUP7 AND DUP5 OR SWAP3 POP POP POP SWAP4 SWAP3 POP POP POP JUMP JUMPDEST PUSH0 DUP2 SWAP1 POP SWAP2 SWAP1 POP JUMP JUMPDEST PUSH0 PUSH2 0x8CB PUSH2 0x8C6 PUSH2 0x8C1 DUP5 PUSH2 0x44F JUMP JUMPDEST PUSH2 0x8A8 JUMP JUMPDEST PUSH2 0x44F JUMP JUMPDEST SWAP1 POP SWAP2 SWAP1 POP JUMP JUMPDEST PUSH0 DUP2 SWAP1 POP SWAP2 SWAP1 POP JUMP JUMPDEST PUSH2 0x8E4 DUP4 PUSH2 0x8B1 JUMP JUMPDEST PUSH2 0x8F8 PUSH2 0x8F0 DUP3 PUSH2 0x8D2 JUMP JUMPDEST DUP5 DUP5 SLOAD PUSH2 0x857 JUMP JUMPDEST DUP3 SSTORE POP POP POP POP JUMP JUMPDEST PUSH0 SWAP1 JUMP JUMPDEST PUSH2 0x90C PUSH2 0x900 JUMP JUMPDEST PUSH2 0x917 DUP2 DUP5 DUP5 PUSH2 0x8DB JUMP JUMPDEST POP POP POP JUMP JUMPDEST JUMPDEST DUP2 DUP2 LT ISZERO PUSH2 0x93A JUMPI PUSH2 0x92F PUSH0 DUP3 PUSH2 0x904 JUMP JUMPDEST PUSH1 0x1 DUP2 ADD SWAP1 POP PUSH2 0x91D JUMP JUMPDEST POP POP JUMP JUMPDEST PUSH1 0x1F DUP3 GT ISZERO PUSH2 0x97F JUMPI PUSH2 0x950 DUP2 PUSH2 0x82A JUMP JUMPDEST PUSH2 0x959 DUP5 PUSH2 0x83C JUMP JUMPDEST DUP2 ADD PUSH1 0x20 DUP6 LT ISZERO PUSH2 0x968 JUMPI DUP2 SWAP1 POP JUMPDEST PUSH2 0x97C PUSH2 0x974 DUP6 PUSH2 0x83C JUMP JUMPDEST DUP4 ADD DUP3 PUSH2 0x91C JUMP JUMPDEST POP POP JUMPDEST POP POP POP JUMP JUMPDEST PUSH0 DUP3 DUP3 SHR SWAP1 POP SWAP3 SWAP2 POP POP JUMP JUMPDEST PUSH0 PUSH2 0x99F PUSH0 NOT DUP5 PUSH1 0x8 MUL PUSH2 0x984 JUMP JUMPDEST NOT DUP1 DUP4 AND SWAP2 POP POP SWAP3 SWAP2 POP POP JUMP JUMPDEST PUSH0 PUSH2 0x9B7 DUP4 DUP4 PUSH2 0x990 JUMP JUMPDEST SWAP2 POP DUP3 PUSH1 0x2 MUL DUP3 OR SWAP1 POP SWAP3 SWAP2 POP POP JUMP JUMPDEST PUSH2 0x9D0 DUP3 PUSH2 0x708 JUMP JUMPDEST PUSH8 0xFFFFFFFFFFFFFFFF DUP2 GT ISZERO PUSH2 0x9E9 JUMPI PUSH2 0x9E8 PUSH2 0x520 JUMP JUMPDEST JUMPDEST PUSH2 0x9F3 DUP3 SLOAD PUSH2 0x7FA JUMP JUMPDEST PUSH2 0x9FE DUP3 DUP3 DUP6 PUSH2 0x93E JUMP JUMPDEST PUSH0 PUSH1 0x20 SWAP1 POP PUSH1 0x1F DUP4 GT PUSH1 0x1 DUP2 EQ PUSH2 0xA2F JUMPI PUSH0 DUP5 ISZERO PUSH2 0xA1D JUMPI DUP3 DUP8 ADD MLOAD SWAP1 POP JUMPDEST PUSH2 0xA27 DUP6 DUP3 PUSH2 0x9AC JUMP JUMPDEST DUP7 SSTORE POP PUSH2 0xA8E JUMP JUMPDEST PUSH1 0x1F NOT DUP5 AND PUSH2 0xA3D DUP7 PUSH2 0x82A JUMP JUMPDEST PUSH0 JUMPDEST DUP3 DUP2 LT ISZERO PUSH2 0xA64 JUMPI DUP5 DUP10 ADD MLOAD DUP3 SSTORE PUSH1 0x1 DUP3 ADD SWAP2 POP PUSH1 0x20 DUP6 ADD SWAP5 POP PUSH1 0x20 DUP2 ADD SWAP1 POP PUSH2 0xA3F JUMP JUMPDEST DUP7 DUP4 LT ISZERO PUSH2 0xA81 JUMPI DUP5 DUP10 ADD MLOAD PUSH2 0xA7D PUSH1 0x1F DUP10 AND DUP3 PUSH2 0x990 JUMP JUMPDEST DUP4 SSTORE POP JUMPDEST PUSH1 0x1 PUSH1 0x2 DUP9 MUL ADD DUP9 SSTORE POP POP POP JUMPDEST POP POP POP POP POP POP JUMP JUMPDEST PUSH0 PUSH1 0x20 DUP3 ADD SWAP1 POP DUP2 DUP2 SUB PUSH0 DUP4 ADD MSTORE PUSH2 0xAAE DUP2 DUP5 PUSH2 0x74A JUMP JUMPDEST SWAP1 POP SWAP3 SWAP2 POP POP JUMP INVALID LOG2 PUSH5 0x6970667358 0x22 SLT KECCAK256 CODESIZE 0xC5 SHL 0xBD 0xC1 CALL PUSH9 0x14353C6863C5CE3430 0xC SSTORE MOD DIV PUSH28 0xF0EA8F750E557DE3C8CD8964736F6C63430008160033000000000000 "
				},
				"gasEstimates": {
					"creation": {
						"codeDepositCost": "559200",
						"executionCost": "592",
						"totalCost": "559792"
					},
					"external": {
						"infoMap(address)": "infinite",
						"remove(address)": "infinite",
						"retrieve()": "2432",
						"set(address,int256,string,bool)": "infinite",
						"store(uint256)": "22537"
					}
				},
				"methodIdentifiers": {
					"infoMap(address)": "ec1653ad",
					"remove(address)": "29092d0e",
					"retrieve()": "2e64cec1",
					"set(address,int256,string,bool)": "d7d0fe2d",
					"store(uint256)": "6057361d"
				}
			},
			"storageLayout": {
				"storage": [
					{
						"astId": 14,
						"contract": "contracts/1_Storage.sol:Storage",
						"label": "infoMap",
						"offset": 0,
						"slot": "0",
						"type": "t_mapping(t_address,t_struct(Info)9_storage)"
					},
					{
						"astId": 70,
						"contract": "contracts/1_Storage.sol:Storage",
						"label": "number",
						"offset": 0,
						"slot": "1",
						"type": "t_uint256"
					}
				],
				"types": {
					"t_address": {
						"encoding": "inplace",
						"label": "address",
						"numberOfBytes": "20"
					},
					"t_bool": {
						"encoding": "inplace",
						"label": "bool",
						"numberOfBytes": "1"
					},
					"t_int256": {
						"encoding": "inplace",
						"label": "int256",
						"numberOfBytes": "32"
					},
					"t_mapping(t_address,t_struct(Info)9_storage)": {
						"encoding": "mapping",
						"key": "t_address",
						"label": "mapping(address => struct Storage.Info)",
						"numberOfBytes": "32",
						"value": "t_struct(Info)9_storage"
					},
					"t_string_storage": {
						"encoding": "bytes",
						"label": "string",
						"numberOfBytes": "32"
					},
					"t_struct(Info)9_storage": {
						"encoding": "inplace",
						"label": "struct Storage.Info",
						"members": [
							{
								"astId": 4,
								"contract": "contracts/1_Storage.sol:Storage",
								"label": "ammount",
								"offset": 0,
								"slot": "0",
								"type": "t_int256"
							},
							{
								"astId": 6,
								"contract": "contracts/1_Storage.sol:Storage",
								"label": "message",
								"offset": 0,
								"slot": "1",
								"type": "t_string_storage"
							},
							{
								"astId": 8,
								"contract": "contracts/1_Storage.sol:Storage",
								"label": "flag",
								"offset": 0,
								"slot": "2",
								"type": "t_bool"
							}
						],
						"numberOfBytes": "96"
					},
					"t_uint256": {
						"encoding": "inplace",
						"label": "uint256",
						"numberOfBytes": "32"
					}
				}
			},
			"userdoc": {
				"kind": "user",
				"methods": {},
				"version": 1
			}
		}
	}
}